{
	"data": {
		"bytecode": {
			"linkReferences": {},
			"object": "6080604052348015600e575f80fd5b50611c398061001c5f395ff3fe608060405234801561000f575f80fd5b50600436106100cd575f3560e01c806375e366161161008a578063b6f921ad11610064578063b6f921ad14610285578063d0077945146102b5578063eb9316c0146102e5578063fbcd927214610315576100cd565b806375e36616146101f55780638445819714610225578063a87107ca14610255576100cd565b8063115d620d146100d15780631b80bb3a146101015780634077faa614610131578063464785ca14610162578063660d72c1146101935780637044c63c146101c4575b5f80fd5b6100eb60048036038101906100e69190610fee565b610345565b6040516100f89190611228565b60405180910390f35b61011b60048036038101906101169190610fee565b6104c3565b60405161012891906112bb565b60405180910390f35b61014b6004803603810190610146919061133c565b610658565b604051610159929190611396565b60405180910390f35b61017c6004803603810190610177919061133c565b6106c8565b60405161018a929190611396565b60405180910390f35b6101ad60048036038101906101a891906113c4565b610738565b6040516101bb929190611396565b60405180910390f35b6101de60048036038101906101d991906113c4565b6107ac565b6040516101ec929190611396565b60405180910390f35b61020f600480360381019061020a9190610fee565b6107d7565b60405161021c9190611451565b60405180910390f35b61023f600480360381019061023a919061146a565b6107ec565b60405161024c91906112bb565b60405180910390f35b61026f600480360381019061026a9190610fee565b61090d565b60405161027c91906112bb565b60405180910390f35b61029f600480360381019061029a919061133c565b6109b0565b6040516102ac9190611451565b60405180910390f35b6102cf60048036038101906102ca919061146a565b610a14565b6040516102dc91906112bb565b60405180910390f35b6102ff60048036038101906102fa91906115ef565b610abb565b60405161030c9190611636565b60405180910390f35b61032f600480360381019061032a9190610fee565b610acb565b60405161033c91906112bb565b60405180910390f35b60605f808381526020019081526020015f20805480602002602001604051908101604052809291908181526020015f905b828210156104b8578382905f5260205f2090600502016040518060a00160405290815f820180546103a69061167c565b80601f01602080910402602001604051908101604052809291908181526020018280546103d29061167c565b801561041d5780601f106103f45761010080835404028352916020019161041d565b820191905f5260205f20905b81548152906001019060200180831161040057829003601f168201915b50505050508152602001600182015f9054906101000a900473ffffffffffffffffffffffffffffffffffffffff1673ffffffffffffffffffffffffffffffffffffffff1673ffffffffffffffffffffffffffffffffffffffff1681526020016002820154815260200160038201548152602001600482015f9054906101000a900460ff16151515158152505081526020019060010190610376565b505050509050919050565b6104cb610f67565b5f805f8481526020019081526020015f20805490501115610653575f808381526020019081526020015f2060015f808581526020019081526020015f208054905061051691906116d9565b815481106105275761052661170c565b5b905f5260205f2090600502016040518060a00160405290815f8201805461054d9061167c565b80601f01602080910402602001604051908101604052809291908181526020018280546105799061167c565b80156105c45780601f1061059b576101008083540402835291602001916105c4565b820191905f5260205f20905b8154815290600101906020018083116105a757829003601f168201915b50505050508152602001600182015f9054906101000a900473ffffffffffffffffffffffffffffffffffffffff1673ffffffffffffffffffffffffffffffffffffffff1673ffffffffffffffffffffffffffffffffffffffff1681526020016002820154815260200160038201548152602001600482015f9054906101000a900460ff16151515158152505090505b919050565b5f610661610f67565b83835f82829050036106a8576040517f08c379a000000000000000000000000000000000000000000000000000000000815260040161069f90611793565b60405180910390fd5b6106b28686610be8565b93506106bd8461090d565b925050509250929050565b5f6106d1610f67565b83835f8282905003610718576040517f08c379a000000000000000000000000000000000000000000000000000000000815260040161070f90611793565b60405180910390fd5b6107228686610be8565b935061072d84610acb565b925050509250929050565b5f610741610f67565b85855f8282905003610788576040517f08c379a000000000000000000000000000000000000000000000000000000000815260040161077f90611793565b60405180910390fd5b6107928888610be8565b935061079f8487876107ec565b9250505094509492505050565b5f6107b5610f67565b6107bf8686610be8565b91506107cc828585610a14565b905094509492505050565b5f6107e1826104c3565b608001519050919050565b6107f4610f67565b836107fe816104c3565b60800151610841576040517f08c379a0000000000000000000000000000000000000000000000000000000008152600401610838906117fb565b60405180910390fd5b843273ffffffffffffffffffffffffffffffffffffffff16610862826104c3565b6020015173ffffffffffffffffffffffffffffffffffffffff16146108bc576040517f08c379a00000000000000000000000000000000000000000000000000000000081526004016108b390611863565b60405180910390fd5b6108c9868686325f610c09565b92507fb911453666f366417698a4814f7be9cb64d9bbcc71450ce377c41a145beb1bbe86846040516108fc929190611396565b60405180910390a150509392505050565b610915610f67565b8161091f816104c3565b6080015115610963576040517f08c379a000000000000000000000000000000000000000000000000000000000815260040161095a906118cb565b60405180910390fd5b61096f83326001610dd5565b91507fec123f39f743f3b6777e2917ce4a6bb3c4f0b4ecd17f545581d938ab3c2756c583836040516109a2929190611396565b60405180910390a150919050565b5f82825f82829050036109f8576040517f08c379a00000000000000000000000000000000000000000000000000000000081526004016109ef90611793565b60405180910390fd5b610a0a610a058686610be8565b6107d7565b9250505092915050565b610a1c610f67565b83610a26816104c3565b6080015115610a6a576040517f08c379a0000000000000000000000000000000000000000000000000000000008152600401610a61906118cb565b60405180910390fd5b610a78858585326001610c09565b91507fec123f39f743f3b6777e2917ce4a6bb3c4f0b4ecd17f545581d938ab3c2756c58583604051610aab929190611396565b60405180910390a1509392505050565b5f81805190602001209050919050565b610ad3610f67565b81610add816104c3565b60800151610b20576040517f08c379a0000000000000000000000000000000000000000000000000000000008152600401610b17906117fb565b60405180910390fd5b823273ffffffffffffffffffffffffffffffffffffffff16610b41826104c3565b6020015173ffffffffffffffffffffffffffffffffffffffff1614610b9b576040517f08c379a0000000000000000000000000000000000000000000000000000000008152600401610b9290611863565b60405180910390fd5b610ba684325f610dd5565b92507fb911453666f366417698a4814f7be9cb64d9bbcc71450ce377c41a145beb1bbe8484604051610bd9929190611396565b60405180910390a15050919050565b5f8282604051610bf9929190611917565b6040518091039020905092915050565b610c11610f67565b855f602060ff1603610c58576040517f08c379a0000000000000000000000000000000000000000000000000000000008152600401610c4f90611979565b60405180910390fd5b85858080601f0160208091040260200160405190810160405280939291908181526020018383808284375f81840152601f19601f82011690508083019250505050505050825f018190525083826020019073ffffffffffffffffffffffffffffffffffffffff16908173ffffffffffffffffffffffffffffffffffffffff16815250504263ffffffff1682604001818152505043826060018181525050828260800190151590811515815250505f808881526020019081526020015f2082908060018154018082558091505060019003905f5260205f2090600502015f909190919091505f820151815f019081610d4f9190611b34565b506020820151816001015f6101000a81548173ffffffffffffffffffffffffffffffffffffffff021916908373ffffffffffffffffffffffffffffffffffffffff16021790555060408201518160020155606082015181600301556080820151816004015f6101000a81548160ff02191690831515021790555050505095945050505050565b610ddd610f67565b835f602060ff1603610e24576040517f08c379a0000000000000000000000000000000000000000000000000000000008152600401610e1b90611979565b60405180910390fd5b610e2d856104c3565b5f0151825f018190525083826020019073ffffffffffffffffffffffffffffffffffffffff16908173ffffffffffffffffffffffffffffffffffffffff16815250504263ffffffff1682604001818152505043826060018181525050828260800190151590811515815250505f808681526020019081526020015f2082908060018154018082558091505060019003905f5260205f2090600502015f909190919091505f820151815f019081610ee39190611b34565b506020820151816001015f6101000a81548173ffffffffffffffffffffffffffffffffffffffff021916908373ffffffffffffffffffffffffffffffffffffffff16021790555060408201518160020155606082015181600301556080820151816004015f6101000a81548160ff0219169083151502179055505050509392505050565b6040518060a00160405280606081526020015f73ffffffffffffffffffffffffffffffffffffffff1681526020015f81526020015f81526020015f151581525090565b5f604051905090565b5f80fd5b5f80fd5b5f819050919050565b610fcd81610fbb565b8114610fd7575f80fd5b50565b5f81359050610fe881610fc4565b92915050565b5f6020828403121561100357611002610fb3565b5b5f61101084828501610fda565b91505092915050565b5f81519050919050565b5f82825260208201905092915050565b5f819050602082019050919050565b5f81519050919050565b5f82825260208201905092915050565b8281835e5f83830152505050565b5f601f19601f8301169050919050565b5f61108482611042565b61108e818561104c565b935061109e81856020860161105c565b6110a78161106a565b840191505092915050565b5f73ffffffffffffffffffffffffffffffffffffffff82169050919050565b5f6110db826110b2565b9050919050565b6110eb816110d1565b82525050565b5f819050919050565b611103816110f1565b82525050565b5f8115159050919050565b61111d81611109565b82525050565b5f60a083015f8301518482035f86015261113d828261107a565b915050602083015161115260208601826110e2565b50604083015161116560408601826110fa565b50606083015161117860608601826110fa565b50608083015161118b6080860182611114565b508091505092915050565b5f6111a18383611123565b905092915050565b5f602082019050919050565b5f6111bf82611019565b6111c98185611023565b9350836020820285016111db85611033565b805f5b8581101561121657848403895281516111f78582611196565b9450611202836111a9565b925060208a019950506001810190506111de565b50829750879550505050505092915050565b5f6020820190508181035f83015261124081846111b5565b905092915050565b5f60a083015f8301518482035f860152611262828261107a565b915050602083015161127760208601826110e2565b50604083015161128a60408601826110fa565b50606083015161129d60608601826110fa565b5060808301516112b06080860182611114565b508091505092915050565b5f6020820190508181035f8301526112d38184611248565b905092915050565b5f80fd5b5f80fd5b5f80fd5b5f8083601f8401126112fc576112fb6112db565b5b8235905067ffffffffffffffff811115611319576113186112df565b5b602083019150836001820283011115611335576113346112e3565b5b9250929050565b5f806020838503121561135257611351610fb3565b5b5f83013567ffffffffffffffff81111561136f5761136e610fb7565b5b61137b858286016112e7565b92509250509250929050565b61139081610fbb565b82525050565b5f6040820190506113a95f830185611387565b81810360208301526113bb8184611248565b90509392505050565b5f805f80604085870312156113dc576113db610fb3565b5b5f85013567ffffffffffffffff8111156113f9576113f8610fb7565b5b611405878288016112e7565b9450945050602085013567ffffffffffffffff81111561142857611427610fb7565b5b611434878288016112e7565b925092505092959194509250565b61144b81611109565b82525050565b5f6020820190506114645f830184611442565b92915050565b5f805f6040848603121561148157611480610fb3565b5b5f61148e86828701610fda565b935050602084013567ffffffffffffffff8111156114af576114ae610fb7565b5b6114bb868287016112e7565b92509250509250925092565b5f80fd5b7f4e487b71000000000000000000000000000000000000000000000000000000005f52604160045260245ffd5b6115018261106a565b810181811067ffffffffffffffff821117156115205761151f6114cb565b5b80604052505050565b5f611532610faa565b905061153e82826114f8565b919050565b5f67ffffffffffffffff82111561155d5761155c6114cb565b5b6115668261106a565b9050602081019050919050565b828183375f83830152505050565b5f61159361158e84611543565b611529565b9050828152602081018484840111156115af576115ae6114c7565b5b6115ba848285611573565b509392505050565b5f82601f8301126115d6576115d56112db565b5b81356115e6848260208601611581565b91505092915050565b5f6020828403121561160457611603610fb3565b5b5f82013567ffffffffffffffff81111561162157611620610fb7565b5b61162d848285016115c2565b91505092915050565b5f6020820190506116495f830184611387565b92915050565b7f4e487b71000000000000000000000000000000000000000000000000000000005f52602260045260245ffd5b5f600282049050600182168061169357607f821691505b6020821081036116a6576116a561164f565b5b50919050565b7f4e487b71000000000000000000000000000000000000000000000000000000005f52601160045260245ffd5b5f6116e3826110f1565b91506116ee836110f1565b9250828203905081811115611706576117056116ac565b5b92915050565b7f4e487b71000000000000000000000000000000000000000000000000000000005f52603260045260245ffd5b5f82825260208201905092915050565b7f456d70747920737472696e67206e6f7420616c6c6f7765642e000000000000005f82015250565b5f61177d601983611739565b915061178882611749565b602082019050919050565b5f6020820190508181035f8301526117aa81611771565b9050919050565b7f4e6f74206e6f746172697a65642e0000000000000000000000000000000000005f82015250565b5f6117e5600e83611739565b91506117f0826117b1565b602082019050919050565b5f6020820190508181035f830152611812816117d9565b9050919050565b7f4f6e6c79206f726967696e616c2073656e64657220616c6c6f7765642e0000005f82015250565b5f61184d601d83611739565b915061185882611819565b602082019050919050565b5f6020820190508181035f83015261187a81611841565b9050919050565b7f416c7265616479206e6f746172697a65642e00000000000000000000000000005f82015250565b5f6118b5601283611739565b91506118c082611881565b602082019050919050565b5f6020820190508181035f8301526118e2816118a9565b9050919050565b5f81905092915050565b5f6118fe83856118e9565b935061190b838584611573565b82840190509392505050565b5f6119238284866118f3565b91508190509392505050565b7f4e756c6c2068617368206e6f7420616c6c6f7765642e000000000000000000005f82015250565b5f611963601683611739565b915061196e8261192f565b602082019050919050565b5f6020820190508181035f83015261199081611957565b9050919050565b5f819050815f5260205f209050919050565b5f6020601f8301049050919050565b5f82821b905092915050565b5f600883026119f37fffffffffffffffffffffffffffffffffffffffffffffffffffffffffffffffff826119b8565b6119fd86836119b8565b95508019841693508086168417925050509392505050565b5f819050919050565b5f611a38611a33611a2e846110f1565b611a15565b6110f1565b9050919050565b5f819050919050565b611a5183611a1e565b611a65611a5d82611a3f565b8484546119c4565b825550505050565b5f90565b611a79611a6d565b611a84818484611a48565b505050565b5b81811015611aa757611a9c5f82611a71565b600181019050611a8a565b5050565b601f821115611aec57611abd81611997565b611ac6846119a9565b81016020851015611ad5578190505b611ae9611ae1856119a9565b830182611a89565b50505b505050565b5f82821c905092915050565b5f611b0c5f1984600802611af1565b1980831691505092915050565b5f611b248383611afd565b9150826002028217905092915050565b611b3d82611042565b67ffffffffffffffff811115611b5657611b556114cb565b5b611b60825461167c565b611b6b828285611aab565b5f60209050601f831160018114611b9c575f8415611b8a578287015190505b611b948582611b19565b865550611bfb565b601f198416611baa86611997565b5f5b82811015611bd157848901518255600182019150602085019450602081019050611bac565b86831015611bee5784890151611bea601f891682611afd565b8355505b6001600288020188555050505b50505050505056fea26469706673582212206937d4b861800811d3ca01eba4c7e06e107f70f9af1b5bc23c0cf21ce512248964736f6c634300081a0033",
			"opcodes": "PUSH1 0x80 PUSH1 0x40 MSTORE CALLVALUE DUP1 ISZERO PUSH1 0xE JUMPI PUSH0 DUP1 REVERT JUMPDEST POP PUSH2 0x1C39 DUP1 PUSH2 0x1C PUSH0 CODECOPY PUSH0 RETURN INVALID PUSH1 0x80 PUSH1 0x40 MSTORE CALLVALUE DUP1 ISZERO PUSH2 0xF JUMPI PUSH0 DUP1 REVERT JUMPDEST POP PUSH1 0x4 CALLDATASIZE LT PUSH2 0xCD JUMPI PUSH0 CALLDATALOAD PUSH1 0xE0 SHR DUP1 PUSH4 0x75E36616 GT PUSH2 0x8A JUMPI DUP1 PUSH4 0xB6F921AD GT PUSH2 0x64 JUMPI DUP1 PUSH4 0xB6F921AD EQ PUSH2 0x285 JUMPI DUP1 PUSH4 0xD0077945 EQ PUSH2 0x2B5 JUMPI DUP1 PUSH4 0xEB9316C0 EQ PUSH2 0x2E5 JUMPI DUP1 PUSH4 0xFBCD9272 EQ PUSH2 0x315 JUMPI PUSH2 0xCD JUMP JUMPDEST DUP1 PUSH4 0x75E36616 EQ PUSH2 0x1F5 JUMPI DUP1 PUSH4 0x84458197 EQ PUSH2 0x225 JUMPI DUP1 PUSH4 0xA87107CA EQ PUSH2 0x255 JUMPI PUSH2 0xCD JUMP JUMPDEST DUP1 PUSH4 0x115D620D EQ PUSH2 0xD1 JUMPI DUP1 PUSH4 0x1B80BB3A EQ PUSH2 0x101 JUMPI DUP1 PUSH4 0x4077FAA6 EQ PUSH2 0x131 JUMPI DUP1 PUSH4 0x464785CA EQ PUSH2 0x162 JUMPI DUP1 PUSH4 0x660D72C1 EQ PUSH2 0x193 JUMPI DUP1 PUSH4 0x7044C63C EQ PUSH2 0x1C4 JUMPI JUMPDEST PUSH0 DUP1 REVERT JUMPDEST PUSH2 0xEB PUSH1 0x4 DUP1 CALLDATASIZE SUB DUP2 ADD SWAP1 PUSH2 0xE6 SWAP2 SWAP1 PUSH2 0xFEE JUMP JUMPDEST PUSH2 0x345 JUMP JUMPDEST PUSH1 0x40 MLOAD PUSH2 0xF8 SWAP2 SWAP1 PUSH2 0x1228 JUMP JUMPDEST PUSH1 0x40 MLOAD DUP1 SWAP2 SUB SWAP1 RETURN JUMPDEST PUSH2 0x11B PUSH1 0x4 DUP1 CALLDATASIZE SUB DUP2 ADD SWAP1 PUSH2 0x116 SWAP2 SWAP1 PUSH2 0xFEE JUMP JUMPDEST PUSH2 0x4C3 JUMP JUMPDEST PUSH1 0x40 MLOAD PUSH2 0x128 SWAP2 SWAP1 PUSH2 0x12BB JUMP JUMPDEST PUSH1 0x40 MLOAD DUP1 SWAP2 SUB SWAP1 RETURN JUMPDEST PUSH2 0x14B PUSH1 0x4 DUP1 CALLDATASIZE SUB DUP2 ADD SWAP1 PUSH2 0x146 SWAP2 SWAP1 PUSH2 0x133C JUMP JUMPDEST PUSH2 0x658 JUMP JUMPDEST PUSH1 0x40 MLOAD PUSH2 0x159 SWAP3 SWAP2 SWAP1 PUSH2 0x1396 JUMP JUMPDEST PUSH1 0x40 MLOAD DUP1 SWAP2 SUB SWAP1 RETURN JUMPDEST PUSH2 0x17C PUSH1 0x4 DUP1 CALLDATASIZE SUB DUP2 ADD SWAP1 PUSH2 0x177 SWAP2 SWAP1 PUSH2 0x133C JUMP JUMPDEST PUSH2 0x6C8 JUMP JUMPDEST PUSH1 0x40 MLOAD PUSH2 0x18A SWAP3 SWAP2 SWAP1 PUSH2 0x1396 JUMP JUMPDEST PUSH1 0x40 MLOAD DUP1 SWAP2 SUB SWAP1 RETURN JUMPDEST PUSH2 0x1AD PUSH1 0x4 DUP1 CALLDATASIZE SUB DUP2 ADD SWAP1 PUSH2 0x1A8 SWAP2 SWAP1 PUSH2 0x13C4 JUMP JUMPDEST PUSH2 0x738 JUMP JUMPDEST PUSH1 0x40 MLOAD PUSH2 0x1BB SWAP3 SWAP2 SWAP1 PUSH2 0x1396 JUMP JUMPDEST PUSH1 0x40 MLOAD DUP1 SWAP2 SUB SWAP1 RETURN JUMPDEST PUSH2 0x1DE PUSH1 0x4 DUP1 CALLDATASIZE SUB DUP2 ADD SWAP1 PUSH2 0x1D9 SWAP2 SWAP1 PUSH2 0x13C4 JUMP JUMPDEST PUSH2 0x7AC JUMP JUMPDEST PUSH1 0x40 MLOAD PUSH2 0x1EC SWAP3 SWAP2 SWAP1 PUSH2 0x1396 JUMP JUMPDEST PUSH1 0x40 MLOAD DUP1 SWAP2 SUB SWAP1 RETURN JUMPDEST PUSH2 0x20F PUSH1 0x4 DUP1 CALLDATASIZE SUB DUP2 ADD SWAP1 PUSH2 0x20A SWAP2 SWAP1 PUSH2 0xFEE JUMP JUMPDEST PUSH2 0x7D7 JUMP JUMPDEST PUSH1 0x40 MLOAD PUSH2 0x21C SWAP2 SWAP1 PUSH2 0x1451 JUMP JUMPDEST PUSH1 0x40 MLOAD DUP1 SWAP2 SUB SWAP1 RETURN JUMPDEST PUSH2 0x23F PUSH1 0x4 DUP1 CALLDATASIZE SUB DUP2 ADD SWAP1 PUSH2 0x23A SWAP2 SWAP1 PUSH2 0x146A JUMP JUMPDEST PUSH2 0x7EC JUMP JUMPDEST PUSH1 0x40 MLOAD PUSH2 0x24C SWAP2 SWAP1 PUSH2 0x12BB JUMP JUMPDEST PUSH1 0x40 MLOAD DUP1 SWAP2 SUB SWAP1 RETURN JUMPDEST PUSH2 0x26F PUSH1 0x4 DUP1 CALLDATASIZE SUB DUP2 ADD SWAP1 PUSH2 0x26A SWAP2 SWAP1 PUSH2 0xFEE JUMP JUMPDEST PUSH2 0x90D JUMP JUMPDEST PUSH1 0x40 MLOAD PUSH2 0x27C SWAP2 SWAP1 PUSH2 0x12BB JUMP JUMPDEST PUSH1 0x40 MLOAD DUP1 SWAP2 SUB SWAP1 RETURN JUMPDEST PUSH2 0x29F PUSH1 0x4 DUP1 CALLDATASIZE SUB DUP2 ADD SWAP1 PUSH2 0x29A SWAP2 SWAP1 PUSH2 0x133C JUMP JUMPDEST PUSH2 0x9B0 JUMP JUMPDEST PUSH1 0x40 MLOAD PUSH2 0x2AC SWAP2 SWAP1 PUSH2 0x1451 JUMP JUMPDEST PUSH1 0x40 MLOAD DUP1 SWAP2 SUB SWAP1 RETURN JUMPDEST PUSH2 0x2CF PUSH1 0x4 DUP1 CALLDATASIZE SUB DUP2 ADD SWAP1 PUSH2 0x2CA SWAP2 SWAP1 PUSH2 0x146A JUMP JUMPDEST PUSH2 0xA14 JUMP JUMPDEST PUSH1 0x40 MLOAD PUSH2 0x2DC SWAP2 SWAP1 PUSH2 0x12BB JUMP JUMPDEST PUSH1 0x40 MLOAD DUP1 SWAP2 SUB SWAP1 RETURN JUMPDEST PUSH2 0x2FF PUSH1 0x4 DUP1 CALLDATASIZE SUB DUP2 ADD SWAP1 PUSH2 0x2FA SWAP2 SWAP1 PUSH2 0x15EF JUMP JUMPDEST PUSH2 0xABB JUMP JUMPDEST PUSH1 0x40 MLOAD PUSH2 0x30C SWAP2 SWAP1 PUSH2 0x1636 JUMP JUMPDEST PUSH1 0x40 MLOAD DUP1 SWAP2 SUB SWAP1 RETURN JUMPDEST PUSH2 0x32F PUSH1 0x4 DUP1 CALLDATASIZE SUB DUP2 ADD SWAP1 PUSH2 0x32A SWAP2 SWAP1 PUSH2 0xFEE JUMP JUMPDEST PUSH2 0xACB JUMP JUMPDEST PUSH1 0x40 MLOAD PUSH2 0x33C SWAP2 SWAP1 PUSH2 0x12BB JUMP JUMPDEST PUSH1 0x40 MLOAD DUP1 SWAP2 SUB SWAP1 RETURN JUMPDEST PUSH1 0x60 PUSH0 DUP1 DUP4 DUP2 MSTORE PUSH1 0x20 ADD SWAP1 DUP2 MSTORE PUSH1 0x20 ADD PUSH0 KECCAK256 DUP1 SLOAD DUP1 PUSH1 0x20 MUL PUSH1 0x20 ADD PUSH1 0x40 MLOAD SWAP1 DUP2 ADD PUSH1 0x40 MSTORE DUP1 SWAP3 SWAP2 SWAP1 DUP2 DUP2 MSTORE PUSH1 0x20 ADD PUSH0 SWAP1 JUMPDEST DUP3 DUP3 LT ISZERO PUSH2 0x4B8 JUMPI DUP4 DUP3 SWAP1 PUSH0 MSTORE PUSH1 0x20 PUSH0 KECCAK256 SWAP1 PUSH1 0x5 MUL ADD PUSH1 0x40 MLOAD DUP1 PUSH1 0xA0 ADD PUSH1 0x40 MSTORE SWAP1 DUP2 PUSH0 DUP3 ADD DUP1 SLOAD PUSH2 0x3A6 SWAP1 PUSH2 0x167C JUMP JUMPDEST DUP1 PUSH1 0x1F ADD PUSH1 0x20 DUP1 SWAP2 DIV MUL PUSH1 0x20 ADD PUSH1 0x40 MLOAD SWAP1 DUP2 ADD PUSH1 0x40 MSTORE DUP1 SWAP3 SWAP2 SWAP1 DUP2 DUP2 MSTORE PUSH1 0x20 ADD DUP3 DUP1 SLOAD PUSH2 0x3D2 SWAP1 PUSH2 0x167C JUMP JUMPDEST DUP1 ISZERO PUSH2 0x41D JUMPI DUP1 PUSH1 0x1F LT PUSH2 0x3F4 JUMPI PUSH2 0x100 DUP1 DUP4 SLOAD DIV MUL DUP4 MSTORE SWAP2 PUSH1 0x20 ADD SWAP2 PUSH2 0x41D JUMP JUMPDEST DUP3 ADD SWAP2 SWAP1 PUSH0 MSTORE PUSH1 0x20 PUSH0 KECCAK256 SWAP1 JUMPDEST DUP2 SLOAD DUP2 MSTORE SWAP1 PUSH1 0x1 ADD SWAP1 PUSH1 0x20 ADD DUP1 DUP4 GT PUSH2 0x400 JUMPI DUP3 SWAP1 SUB PUSH1 0x1F AND DUP3 ADD SWAP2 JUMPDEST POP POP POP POP POP DUP2 MSTORE PUSH1 0x20 ADD PUSH1 0x1 DUP3 ADD PUSH0 SWAP1 SLOAD SWAP1 PUSH2 0x100 EXP SWAP1 DIV PUSH20 0xFFFFFFFFFFFFFFFFFFFFFFFFFFFFFFFFFFFFFFFF AND PUSH20 0xFFFFFFFFFFFFFFFFFFFFFFFFFFFFFFFFFFFFFFFF AND PUSH20 0xFFFFFFFFFFFFFFFFFFFFFFFFFFFFFFFFFFFFFFFF AND DUP2 MSTORE PUSH1 0x20 ADD PUSH1 0x2 DUP3 ADD SLOAD DUP2 MSTORE PUSH1 0x20 ADD PUSH1 0x3 DUP3 ADD SLOAD DUP2 MSTORE PUSH1 0x20 ADD PUSH1 0x4 DUP3 ADD PUSH0 SWAP1 SLOAD SWAP1 PUSH2 0x100 EXP SWAP1 DIV PUSH1 0xFF AND ISZERO ISZERO ISZERO ISZERO DUP2 MSTORE POP POP DUP2 MSTORE PUSH1 0x20 ADD SWAP1 PUSH1 0x1 ADD SWAP1 PUSH2 0x376 JUMP JUMPDEST POP POP POP POP SWAP1 POP SWAP2 SWAP1 POP JUMP JUMPDEST PUSH2 0x4CB PUSH2 0xF67 JUMP JUMPDEST PUSH0 DUP1 PUSH0 DUP5 DUP2 MSTORE PUSH1 0x20 ADD SWAP1 DUP2 MSTORE PUSH1 0x20 ADD PUSH0 KECCAK256 DUP1 SLOAD SWAP1 POP GT ISZERO PUSH2 0x653 JUMPI PUSH0 DUP1 DUP4 DUP2 MSTORE PUSH1 0x20 ADD SWAP1 DUP2 MSTORE PUSH1 0x20 ADD PUSH0 KECCAK256 PUSH1 0x1 PUSH0 DUP1 DUP6 DUP2 MSTORE PUSH1 0x20 ADD SWAP1 DUP2 MSTORE PUSH1 0x20 ADD PUSH0 KECCAK256 DUP1 SLOAD SWAP1 POP PUSH2 0x516 SWAP2 SWAP1 PUSH2 0x16D9 JUMP JUMPDEST DUP2 SLOAD DUP2 LT PUSH2 0x527 JUMPI PUSH2 0x526 PUSH2 0x170C JUMP JUMPDEST JUMPDEST SWAP1 PUSH0 MSTORE PUSH1 0x20 PUSH0 KECCAK256 SWAP1 PUSH1 0x5 MUL ADD PUSH1 0x40 MLOAD DUP1 PUSH1 0xA0 ADD PUSH1 0x40 MSTORE SWAP1 DUP2 PUSH0 DUP3 ADD DUP1 SLOAD PUSH2 0x54D SWAP1 PUSH2 0x167C JUMP JUMPDEST DUP1 PUSH1 0x1F ADD PUSH1 0x20 DUP1 SWAP2 DIV MUL PUSH1 0x20 ADD PUSH1 0x40 MLOAD SWAP1 DUP2 ADD PUSH1 0x40 MSTORE DUP1 SWAP3 SWAP2 SWAP1 DUP2 DUP2 MSTORE PUSH1 0x20 ADD DUP3 DUP1 SLOAD PUSH2 0x579 SWAP1 PUSH2 0x167C JUMP JUMPDEST DUP1 ISZERO PUSH2 0x5C4 JUMPI DUP1 PUSH1 0x1F LT PUSH2 0x59B JUMPI PUSH2 0x100 DUP1 DUP4 SLOAD DIV MUL DUP4 MSTORE SWAP2 PUSH1 0x20 ADD SWAP2 PUSH2 0x5C4 JUMP JUMPDEST DUP3 ADD SWAP2 SWAP1 PUSH0 MSTORE PUSH1 0x20 PUSH0 KECCAK256 SWAP1 JUMPDEST DUP2 SLOAD DUP2 MSTORE SWAP1 PUSH1 0x1 ADD SWAP1 PUSH1 0x20 ADD DUP1 DUP4 GT PUSH2 0x5A7 JUMPI DUP3 SWAP1 SUB PUSH1 0x1F AND DUP3 ADD SWAP2 JUMPDEST POP POP POP POP POP DUP2 MSTORE PUSH1 0x20 ADD PUSH1 0x1 DUP3 ADD PUSH0 SWAP1 SLOAD SWAP1 PUSH2 0x100 EXP SWAP1 DIV PUSH20 0xFFFFFFFFFFFFFFFFFFFFFFFFFFFFFFFFFFFFFFFF AND PUSH20 0xFFFFFFFFFFFFFFFFFFFFFFFFFFFFFFFFFFFFFFFF AND PUSH20 0xFFFFFFFFFFFFFFFFFFFFFFFFFFFFFFFFFFFFFFFF AND DUP2 MSTORE PUSH1 0x20 ADD PUSH1 0x2 DUP3 ADD SLOAD DUP2 MSTORE PUSH1 0x20 ADD PUSH1 0x3 DUP3 ADD SLOAD DUP2 MSTORE PUSH1 0x20 ADD PUSH1 0x4 DUP3 ADD PUSH0 SWAP1 SLOAD SWAP1 PUSH2 0x100 EXP SWAP1 DIV PUSH1 0xFF AND ISZERO ISZERO ISZERO ISZERO DUP2 MSTORE POP POP SWAP1 POP JUMPDEST SWAP2 SWAP1 POP JUMP JUMPDEST PUSH0 PUSH2 0x661 PUSH2 0xF67 JUMP JUMPDEST DUP4 DUP4 PUSH0 DUP3 DUP3 SWAP1 POP SUB PUSH2 0x6A8 JUMPI PUSH1 0x40 MLOAD PUSH32 0x8C379A000000000000000000000000000000000000000000000000000000000 DUP2 MSTORE PUSH1 0x4 ADD PUSH2 0x69F SWAP1 PUSH2 0x1793 JUMP JUMPDEST PUSH1 0x40 MLOAD DUP1 SWAP2 SUB SWAP1 REVERT JUMPDEST PUSH2 0x6B2 DUP7 DUP7 PUSH2 0xBE8 JUMP JUMPDEST SWAP4 POP PUSH2 0x6BD DUP5 PUSH2 0x90D JUMP JUMPDEST SWAP3 POP POP POP SWAP3 POP SWAP3 SWAP1 POP JUMP JUMPDEST PUSH0 PUSH2 0x6D1 PUSH2 0xF67 JUMP JUMPDEST DUP4 DUP4 PUSH0 DUP3 DUP3 SWAP1 POP SUB PUSH2 0x718 JUMPI PUSH1 0x40 MLOAD PUSH32 0x8C379A000000000000000000000000000000000000000000000000000000000 DUP2 MSTORE PUSH1 0x4 ADD PUSH2 0x70F SWAP1 PUSH2 0x1793 JUMP JUMPDEST PUSH1 0x40 MLOAD DUP1 SWAP2 SUB SWAP1 REVERT JUMPDEST PUSH2 0x722 DUP7 DUP7 PUSH2 0xBE8 JUMP JUMPDEST SWAP4 POP PUSH2 0x72D DUP5 PUSH2 0xACB JUMP JUMPDEST SWAP3 POP POP POP SWAP3 POP SWAP3 SWAP1 POP JUMP JUMPDEST PUSH0 PUSH2 0x741 PUSH2 0xF67 JUMP JUMPDEST DUP6 DUP6 PUSH0 DUP3 DUP3 SWAP1 POP SUB PUSH2 0x788 JUMPI PUSH1 0x40 MLOAD PUSH32 0x8C379A000000000000000000000000000000000000000000000000000000000 DUP2 MSTORE PUSH1 0x4 ADD PUSH2 0x77F SWAP1 PUSH2 0x1793 JUMP JUMPDEST PUSH1 0x40 MLOAD DUP1 SWAP2 SUB SWAP1 REVERT JUMPDEST PUSH2 0x792 DUP9 DUP9 PUSH2 0xBE8 JUMP JUMPDEST SWAP4 POP PUSH2 0x79F DUP5 DUP8 DUP8 PUSH2 0x7EC JUMP JUMPDEST SWAP3 POP POP POP SWAP5 POP SWAP5 SWAP3 POP POP POP JUMP JUMPDEST PUSH0 PUSH2 0x7B5 PUSH2 0xF67 JUMP JUMPDEST PUSH2 0x7BF DUP7 DUP7 PUSH2 0xBE8 JUMP JUMPDEST SWAP2 POP PUSH2 0x7CC DUP3 DUP6 DUP6 PUSH2 0xA14 JUMP JUMPDEST SWAP1 POP SWAP5 POP SWAP5 SWAP3 POP POP POP JUMP JUMPDEST PUSH0 PUSH2 0x7E1 DUP3 PUSH2 0x4C3 JUMP JUMPDEST PUSH1 0x80 ADD MLOAD SWAP1 POP SWAP2 SWAP1 POP JUMP JUMPDEST PUSH2 0x7F4 PUSH2 0xF67 JUMP JUMPDEST DUP4 PUSH2 0x7FE DUP2 PUSH2 0x4C3 JUMP JUMPDEST PUSH1 0x80 ADD MLOAD PUSH2 0x841 JUMPI PUSH1 0x40 MLOAD PUSH32 0x8C379A000000000000000000000000000000000000000000000000000000000 DUP2 MSTORE PUSH1 0x4 ADD PUSH2 0x838 SWAP1 PUSH2 0x17FB JUMP JUMPDEST PUSH1 0x40 MLOAD DUP1 SWAP2 SUB SWAP1 REVERT JUMPDEST DUP5 ORIGIN PUSH20 0xFFFFFFFFFFFFFFFFFFFFFFFFFFFFFFFFFFFFFFFF AND PUSH2 0x862 DUP3 PUSH2 0x4C3 JUMP JUMPDEST PUSH1 0x20 ADD MLOAD PUSH20 0xFFFFFFFFFFFFFFFFFFFFFFFFFFFFFFFFFFFFFFFF AND EQ PUSH2 0x8BC JUMPI PUSH1 0x40 MLOAD PUSH32 0x8C379A000000000000000000000000000000000000000000000000000000000 DUP2 MSTORE PUSH1 0x4 ADD PUSH2 0x8B3 SWAP1 PUSH2 0x1863 JUMP JUMPDEST PUSH1 0x40 MLOAD DUP1 SWAP2 SUB SWAP1 REVERT JUMPDEST PUSH2 0x8C9 DUP7 DUP7 DUP7 ORIGIN PUSH0 PUSH2 0xC09 JUMP JUMPDEST SWAP3 POP PUSH32 0xB911453666F366417698A4814F7BE9CB64D9BBCC71450CE377C41A145BEB1BBE DUP7 DUP5 PUSH1 0x40 MLOAD PUSH2 0x8FC SWAP3 SWAP2 SWAP1 PUSH2 0x1396 JUMP JUMPDEST PUSH1 0x40 MLOAD DUP1 SWAP2 SUB SWAP1 LOG1 POP POP SWAP4 SWAP3 POP POP POP JUMP JUMPDEST PUSH2 0x915 PUSH2 0xF67 JUMP JUMPDEST DUP2 PUSH2 0x91F DUP2 PUSH2 0x4C3 JUMP JUMPDEST PUSH1 0x80 ADD MLOAD ISZERO PUSH2 0x963 JUMPI PUSH1 0x40 MLOAD PUSH32 0x8C379A000000000000000000000000000000000000000000000000000000000 DUP2 MSTORE PUSH1 0x4 ADD PUSH2 0x95A SWAP1 PUSH2 0x18CB JUMP JUMPDEST PUSH1 0x40 MLOAD DUP1 SWAP2 SUB SWAP1 REVERT JUMPDEST PUSH2 0x96F DUP4 ORIGIN PUSH1 0x1 PUSH2 0xDD5 JUMP JUMPDEST SWAP2 POP PUSH32 0xEC123F39F743F3B6777E2917CE4A6BB3C4F0B4ECD17F545581D938AB3C2756C5 DUP4 DUP4 PUSH1 0x40 MLOAD PUSH2 0x9A2 SWAP3 SWAP2 SWAP1 PUSH2 0x1396 JUMP JUMPDEST PUSH1 0x40 MLOAD DUP1 SWAP2 SUB SWAP1 LOG1 POP SWAP2 SWAP1 POP JUMP JUMPDEST PUSH0 DUP3 DUP3 PUSH0 DUP3 DUP3 SWAP1 POP SUB PUSH2 0x9F8 JUMPI PUSH1 0x40 MLOAD PUSH32 0x8C379A000000000000000000000000000000000000000000000000000000000 DUP2 MSTORE PUSH1 0x4 ADD PUSH2 0x9EF SWAP1 PUSH2 0x1793 JUMP JUMPDEST PUSH1 0x40 MLOAD DUP1 SWAP2 SUB SWAP1 REVERT JUMPDEST PUSH2 0xA0A PUSH2 0xA05 DUP7 DUP7 PUSH2 0xBE8 JUMP JUMPDEST PUSH2 0x7D7 JUMP JUMPDEST SWAP3 POP POP POP SWAP3 SWAP2 POP POP JUMP JUMPDEST PUSH2 0xA1C PUSH2 0xF67 JUMP JUMPDEST DUP4 PUSH2 0xA26 DUP2 PUSH2 0x4C3 JUMP JUMPDEST PUSH1 0x80 ADD MLOAD ISZERO PUSH2 0xA6A JUMPI PUSH1 0x40 MLOAD PUSH32 0x8C379A000000000000000000000000000000000000000000000000000000000 DUP2 MSTORE PUSH1 0x4 ADD PUSH2 0xA61 SWAP1 PUSH2 0x18CB JUMP JUMPDEST PUSH1 0x40 MLOAD DUP1 SWAP2 SUB SWAP1 REVERT JUMPDEST PUSH2 0xA78 DUP6 DUP6 DUP6 ORIGIN PUSH1 0x1 PUSH2 0xC09 JUMP JUMPDEST SWAP2 POP PUSH32 0xEC123F39F743F3B6777E2917CE4A6BB3C4F0B4ECD17F545581D938AB3C2756C5 DUP6 DUP4 PUSH1 0x40 MLOAD PUSH2 0xAAB SWAP3 SWAP2 SWAP1 PUSH2 0x1396 JUMP JUMPDEST PUSH1 0x40 MLOAD DUP1 SWAP2 SUB SWAP1 LOG1 POP SWAP4 SWAP3 POP POP POP JUMP JUMPDEST PUSH0 DUP2 DUP1 MLOAD SWAP1 PUSH1 0x20 ADD KECCAK256 SWAP1 POP SWAP2 SWAP1 POP JUMP JUMPDEST PUSH2 0xAD3 PUSH2 0xF67 JUMP JUMPDEST DUP2 PUSH2 0xADD DUP2 PUSH2 0x4C3 JUMP JUMPDEST PUSH1 0x80 ADD MLOAD PUSH2 0xB20 JUMPI PUSH1 0x40 MLOAD PUSH32 0x8C379A000000000000000000000000000000000000000000000000000000000 DUP2 MSTORE PUSH1 0x4 ADD PUSH2 0xB17 SWAP1 PUSH2 0x17FB JUMP JUMPDEST PUSH1 0x40 MLOAD DUP1 SWAP2 SUB SWAP1 REVERT JUMPDEST DUP3 ORIGIN PUSH20 0xFFFFFFFFFFFFFFFFFFFFFFFFFFFFFFFFFFFFFFFF AND PUSH2 0xB41 DUP3 PUSH2 0x4C3 JUMP JUMPDEST PUSH1 0x20 ADD MLOAD PUSH20 0xFFFFFFFFFFFFFFFFFFFFFFFFFFFFFFFFFFFFFFFF AND EQ PUSH2 0xB9B JUMPI PUSH1 0x40 MLOAD PUSH32 0x8C379A000000000000000000000000000000000000000000000000000000000 DUP2 MSTORE PUSH1 0x4 ADD PUSH2 0xB92 SWAP1 PUSH2 0x1863 JUMP JUMPDEST PUSH1 0x40 MLOAD DUP1 SWAP2 SUB SWAP1 REVERT JUMPDEST PUSH2 0xBA6 DUP5 ORIGIN PUSH0 PUSH2 0xDD5 JUMP JUMPDEST SWAP3 POP PUSH32 0xB911453666F366417698A4814F7BE9CB64D9BBCC71450CE377C41A145BEB1BBE DUP5 DUP5 PUSH1 0x40 MLOAD PUSH2 0xBD9 SWAP3 SWAP2 SWAP1 PUSH2 0x1396 JUMP JUMPDEST PUSH1 0x40 MLOAD DUP1 SWAP2 SUB SWAP1 LOG1 POP POP SWAP2 SWAP1 POP JUMP JUMPDEST PUSH0 DUP3 DUP3 PUSH1 0x40 MLOAD PUSH2 0xBF9 SWAP3 SWAP2 SWAP1 PUSH2 0x1917 JUMP JUMPDEST PUSH1 0x40 MLOAD DUP1 SWAP2 SUB SWAP1 KECCAK256 SWAP1 POP SWAP3 SWAP2 POP POP JUMP JUMPDEST PUSH2 0xC11 PUSH2 0xF67 JUMP JUMPDEST DUP6 PUSH0 PUSH1 0x20 PUSH1 0xFF AND SUB PUSH2 0xC58 JUMPI PUSH1 0x40 MLOAD PUSH32 0x8C379A000000000000000000000000000000000000000000000000000000000 DUP2 MSTORE PUSH1 0x4 ADD PUSH2 0xC4F SWAP1 PUSH2 0x1979 JUMP JUMPDEST PUSH1 0x40 MLOAD DUP1 SWAP2 SUB SWAP1 REVERT JUMPDEST DUP6 DUP6 DUP1 DUP1 PUSH1 0x1F ADD PUSH1 0x20 DUP1 SWAP2 DIV MUL PUSH1 0x20 ADD PUSH1 0x40 MLOAD SWAP1 DUP2 ADD PUSH1 0x40 MSTORE DUP1 SWAP4 SWAP3 SWAP2 SWAP1 DUP2 DUP2 MSTORE PUSH1 0x20 ADD DUP4 DUP4 DUP1 DUP3 DUP5 CALLDATACOPY PUSH0 DUP2 DUP5 ADD MSTORE PUSH1 0x1F NOT PUSH1 0x1F DUP3 ADD AND SWAP1 POP DUP1 DUP4 ADD SWAP3 POP POP POP POP POP POP POP DUP3 PUSH0 ADD DUP2 SWAP1 MSTORE POP DUP4 DUP3 PUSH1 0x20 ADD SWAP1 PUSH20 0xFFFFFFFFFFFFFFFFFFFFFFFFFFFFFFFFFFFFFFFF AND SWAP1 DUP2 PUSH20 0xFFFFFFFFFFFFFFFFFFFFFFFFFFFFFFFFFFFFFFFF AND DUP2 MSTORE POP POP TIMESTAMP PUSH4 0xFFFFFFFF AND DUP3 PUSH1 0x40 ADD DUP2 DUP2 MSTORE POP POP NUMBER DUP3 PUSH1 0x60 ADD DUP2 DUP2 MSTORE POP POP DUP3 DUP3 PUSH1 0x80 ADD SWAP1 ISZERO ISZERO SWAP1 DUP2 ISZERO ISZERO DUP2 MSTORE POP POP PUSH0 DUP1 DUP9 DUP2 MSTORE PUSH1 0x20 ADD SWAP1 DUP2 MSTORE PUSH1 0x20 ADD PUSH0 KECCAK256 DUP3 SWAP1 DUP1 PUSH1 0x1 DUP2 SLOAD ADD DUP1 DUP3 SSTORE DUP1 SWAP2 POP POP PUSH1 0x1 SWAP1 SUB SWAP1 PUSH0 MSTORE PUSH1 0x20 PUSH0 KECCAK256 SWAP1 PUSH1 0x5 MUL ADD PUSH0 SWAP1 SWAP2 SWAP1 SWAP2 SWAP1 SWAP2 POP PUSH0 DUP3 ADD MLOAD DUP2 PUSH0 ADD SWAP1 DUP2 PUSH2 0xD4F SWAP2 SWAP1 PUSH2 0x1B34 JUMP JUMPDEST POP PUSH1 0x20 DUP3 ADD MLOAD DUP2 PUSH1 0x1 ADD PUSH0 PUSH2 0x100 EXP DUP2 SLOAD DUP2 PUSH20 0xFFFFFFFFFFFFFFFFFFFFFFFFFFFFFFFFFFFFFFFF MUL NOT AND SWAP1 DUP4 PUSH20 0xFFFFFFFFFFFFFFFFFFFFFFFFFFFFFFFFFFFFFFFF AND MUL OR SWAP1 SSTORE POP PUSH1 0x40 DUP3 ADD MLOAD DUP2 PUSH1 0x2 ADD SSTORE PUSH1 0x60 DUP3 ADD MLOAD DUP2 PUSH1 0x3 ADD SSTORE PUSH1 0x80 DUP3 ADD MLOAD DUP2 PUSH1 0x4 ADD PUSH0 PUSH2 0x100 EXP DUP2 SLOAD DUP2 PUSH1 0xFF MUL NOT AND SWAP1 DUP4 ISZERO ISZERO MUL OR SWAP1 SSTORE POP POP POP POP SWAP6 SWAP5 POP POP POP POP POP JUMP JUMPDEST PUSH2 0xDDD PUSH2 0xF67 JUMP JUMPDEST DUP4 PUSH0 PUSH1 0x20 PUSH1 0xFF AND SUB PUSH2 0xE24 JUMPI PUSH1 0x40 MLOAD PUSH32 0x8C379A000000000000000000000000000000000000000000000000000000000 DUP2 MSTORE PUSH1 0x4 ADD PUSH2 0xE1B SWAP1 PUSH2 0x1979 JUMP JUMPDEST PUSH1 0x40 MLOAD DUP1 SWAP2 SUB SWAP1 REVERT JUMPDEST PUSH2 0xE2D DUP6 PUSH2 0x4C3 JUMP JUMPDEST PUSH0 ADD MLOAD DUP3 PUSH0 ADD DUP2 SWAP1 MSTORE POP DUP4 DUP3 PUSH1 0x20 ADD SWAP1 PUSH20 0xFFFFFFFFFFFFFFFFFFFFFFFFFFFFFFFFFFFFFFFF AND SWAP1 DUP2 PUSH20 0xFFFFFFFFFFFFFFFFFFFFFFFFFFFFFFFFFFFFFFFF AND DUP2 MSTORE POP POP TIMESTAMP PUSH4 0xFFFFFFFF AND DUP3 PUSH1 0x40 ADD DUP2 DUP2 MSTORE POP POP NUMBER DUP3 PUSH1 0x60 ADD DUP2 DUP2 MSTORE POP POP DUP3 DUP3 PUSH1 0x80 ADD SWAP1 ISZERO ISZERO SWAP1 DUP2 ISZERO ISZERO DUP2 MSTORE POP POP PUSH0 DUP1 DUP7 DUP2 MSTORE PUSH1 0x20 ADD SWAP1 DUP2 MSTORE PUSH1 0x20 ADD PUSH0 KECCAK256 DUP3 SWAP1 DUP1 PUSH1 0x1 DUP2 SLOAD ADD DUP1 DUP3 SSTORE DUP1 SWAP2 POP POP PUSH1 0x1 SWAP1 SUB SWAP1 PUSH0 MSTORE PUSH1 0x20 PUSH0 KECCAK256 SWAP1 PUSH1 0x5 MUL ADD PUSH0 SWAP1 SWAP2 SWAP1 SWAP2 SWAP1 SWAP2 POP PUSH0 DUP3 ADD MLOAD DUP2 PUSH0 ADD SWAP1 DUP2 PUSH2 0xEE3 SWAP2 SWAP1 PUSH2 0x1B34 JUMP JUMPDEST POP PUSH1 0x20 DUP3 ADD MLOAD DUP2 PUSH1 0x1 ADD PUSH0 PUSH2 0x100 EXP DUP2 SLOAD DUP2 PUSH20 0xFFFFFFFFFFFFFFFFFFFFFFFFFFFFFFFFFFFFFFFF MUL NOT AND SWAP1 DUP4 PUSH20 0xFFFFFFFFFFFFFFFFFFFFFFFFFFFFFFFFFFFFFFFF AND MUL OR SWAP1 SSTORE POP PUSH1 0x40 DUP3 ADD MLOAD DUP2 PUSH1 0x2 ADD SSTORE PUSH1 0x60 DUP3 ADD MLOAD DUP2 PUSH1 0x3 ADD SSTORE PUSH1 0x80 DUP3 ADD MLOAD DUP2 PUSH1 0x4 ADD PUSH0 PUSH2 0x100 EXP DUP2 SLOAD DUP2 PUSH1 0xFF MUL NOT AND SWAP1 DUP4 ISZERO ISZERO MUL OR SWAP1 SSTORE POP POP POP POP SWAP4 SWAP3 POP POP POP JUMP JUMPDEST PUSH1 0x40 MLOAD DUP1 PUSH1 0xA0 ADD PUSH1 0x40 MSTORE DUP1 PUSH1 0x60 DUP2 MSTORE PUSH1 0x20 ADD PUSH0 PUSH20 0xFFFFFFFFFFFFFFFFFFFFFFFFFFFFFFFFFFFFFFFF AND DUP2 MSTORE PUSH1 0x20 ADD PUSH0 DUP2 MSTORE PUSH1 0x20 ADD PUSH0 DUP2 MSTORE PUSH1 0x20 ADD PUSH0 ISZERO ISZERO DUP2 MSTORE POP SWAP1 JUMP JUMPDEST PUSH0 PUSH1 0x40 MLOAD SWAP1 POP SWAP1 JUMP JUMPDEST PUSH0 DUP1 REVERT JUMPDEST PUSH0 DUP1 REVERT JUMPDEST PUSH0 DUP2 SWAP1 POP SWAP2 SWAP1 POP JUMP JUMPDEST PUSH2 0xFCD DUP2 PUSH2 0xFBB JUMP JUMPDEST DUP2 EQ PUSH2 0xFD7 JUMPI PUSH0 DUP1 REVERT JUMPDEST POP JUMP JUMPDEST PUSH0 DUP2 CALLDATALOAD SWAP1 POP PUSH2 0xFE8 DUP2 PUSH2 0xFC4 JUMP JUMPDEST SWAP3 SWAP2 POP POP JUMP JUMPDEST PUSH0 PUSH1 0x20 DUP3 DUP5 SUB SLT ISZERO PUSH2 0x1003 JUMPI PUSH2 0x1002 PUSH2 0xFB3 JUMP JUMPDEST JUMPDEST PUSH0 PUSH2 0x1010 DUP5 DUP3 DUP6 ADD PUSH2 0xFDA JUMP JUMPDEST SWAP2 POP POP SWAP3 SWAP2 POP POP JUMP JUMPDEST PUSH0 DUP2 MLOAD SWAP1 POP SWAP2 SWAP1 POP JUMP JUMPDEST PUSH0 DUP3 DUP3 MSTORE PUSH1 0x20 DUP3 ADD SWAP1 POP SWAP3 SWAP2 POP POP JUMP JUMPDEST PUSH0 DUP2 SWAP1 POP PUSH1 0x20 DUP3 ADD SWAP1 POP SWAP2 SWAP1 POP JUMP JUMPDEST PUSH0 DUP2 MLOAD SWAP1 POP SWAP2 SWAP1 POP JUMP JUMPDEST PUSH0 DUP3 DUP3 MSTORE PUSH1 0x20 DUP3 ADD SWAP1 POP SWAP3 SWAP2 POP POP JUMP JUMPDEST DUP3 DUP2 DUP4 MCOPY PUSH0 DUP4 DUP4 ADD MSTORE POP POP POP JUMP JUMPDEST PUSH0 PUSH1 0x1F NOT PUSH1 0x1F DUP4 ADD AND SWAP1 POP SWAP2 SWAP1 POP JUMP JUMPDEST PUSH0 PUSH2 0x1084 DUP3 PUSH2 0x1042 JUMP JUMPDEST PUSH2 0x108E DUP2 DUP6 PUSH2 0x104C JUMP JUMPDEST SWAP4 POP PUSH2 0x109E DUP2 DUP6 PUSH1 0x20 DUP7 ADD PUSH2 0x105C JUMP JUMPDEST PUSH2 0x10A7 DUP2 PUSH2 0x106A JUMP JUMPDEST DUP5 ADD SWAP2 POP POP SWAP3 SWAP2 POP POP JUMP JUMPDEST PUSH0 PUSH20 0xFFFFFFFFFFFFFFFFFFFFFFFFFFFFFFFFFFFFFFFF DUP3 AND SWAP1 POP SWAP2 SWAP1 POP JUMP JUMPDEST PUSH0 PUSH2 0x10DB DUP3 PUSH2 0x10B2 JUMP JUMPDEST SWAP1 POP SWAP2 SWAP1 POP JUMP JUMPDEST PUSH2 0x10EB DUP2 PUSH2 0x10D1 JUMP JUMPDEST DUP3 MSTORE POP POP JUMP JUMPDEST PUSH0 DUP2 SWAP1 POP SWAP2 SWAP1 POP JUMP JUMPDEST PUSH2 0x1103 DUP2 PUSH2 0x10F1 JUMP JUMPDEST DUP3 MSTORE POP POP JUMP JUMPDEST PUSH0 DUP2 ISZERO ISZERO SWAP1 POP SWAP2 SWAP1 POP JUMP JUMPDEST PUSH2 0x111D DUP2 PUSH2 0x1109 JUMP JUMPDEST DUP3 MSTORE POP POP JUMP JUMPDEST PUSH0 PUSH1 0xA0 DUP4 ADD PUSH0 DUP4 ADD MLOAD DUP5 DUP3 SUB PUSH0 DUP7 ADD MSTORE PUSH2 0x113D DUP3 DUP3 PUSH2 0x107A JUMP JUMPDEST SWAP2 POP POP PUSH1 0x20 DUP4 ADD MLOAD PUSH2 0x1152 PUSH1 0x20 DUP7 ADD DUP3 PUSH2 0x10E2 JUMP JUMPDEST POP PUSH1 0x40 DUP4 ADD MLOAD PUSH2 0x1165 PUSH1 0x40 DUP7 ADD DUP3 PUSH2 0x10FA JUMP JUMPDEST POP PUSH1 0x60 DUP4 ADD MLOAD PUSH2 0x1178 PUSH1 0x60 DUP7 ADD DUP3 PUSH2 0x10FA JUMP JUMPDEST POP PUSH1 0x80 DUP4 ADD MLOAD PUSH2 0x118B PUSH1 0x80 DUP7 ADD DUP3 PUSH2 0x1114 JUMP JUMPDEST POP DUP1 SWAP2 POP POP SWAP3 SWAP2 POP POP JUMP JUMPDEST PUSH0 PUSH2 0x11A1 DUP4 DUP4 PUSH2 0x1123 JUMP JUMPDEST SWAP1 POP SWAP3 SWAP2 POP POP JUMP JUMPDEST PUSH0 PUSH1 0x20 DUP3 ADD SWAP1 POP SWAP2 SWAP1 POP JUMP JUMPDEST PUSH0 PUSH2 0x11BF DUP3 PUSH2 0x1019 JUMP JUMPDEST PUSH2 0x11C9 DUP2 DUP6 PUSH2 0x1023 JUMP JUMPDEST SWAP4 POP DUP4 PUSH1 0x20 DUP3 MUL DUP6 ADD PUSH2 0x11DB DUP6 PUSH2 0x1033 JUMP JUMPDEST DUP1 PUSH0 JUMPDEST DUP6 DUP2 LT ISZERO PUSH2 0x1216 JUMPI DUP5 DUP5 SUB DUP10 MSTORE DUP2 MLOAD PUSH2 0x11F7 DUP6 DUP3 PUSH2 0x1196 JUMP JUMPDEST SWAP5 POP PUSH2 0x1202 DUP4 PUSH2 0x11A9 JUMP JUMPDEST SWAP3 POP PUSH1 0x20 DUP11 ADD SWAP10 POP POP PUSH1 0x1 DUP2 ADD SWAP1 POP PUSH2 0x11DE JUMP JUMPDEST POP DUP3 SWAP8 POP DUP8 SWAP6 POP POP POP POP POP POP SWAP3 SWAP2 POP POP JUMP JUMPDEST PUSH0 PUSH1 0x20 DUP3 ADD SWAP1 POP DUP2 DUP2 SUB PUSH0 DUP4 ADD MSTORE PUSH2 0x1240 DUP2 DUP5 PUSH2 0x11B5 JUMP JUMPDEST SWAP1 POP SWAP3 SWAP2 POP POP JUMP JUMPDEST PUSH0 PUSH1 0xA0 DUP4 ADD PUSH0 DUP4 ADD MLOAD DUP5 DUP3 SUB PUSH0 DUP7 ADD MSTORE PUSH2 0x1262 DUP3 DUP3 PUSH2 0x107A JUMP JUMPDEST SWAP2 POP POP PUSH1 0x20 DUP4 ADD MLOAD PUSH2 0x1277 PUSH1 0x20 DUP7 ADD DUP3 PUSH2 0x10E2 JUMP JUMPDEST POP PUSH1 0x40 DUP4 ADD MLOAD PUSH2 0x128A PUSH1 0x40 DUP7 ADD DUP3 PUSH2 0x10FA JUMP JUMPDEST POP PUSH1 0x60 DUP4 ADD MLOAD PUSH2 0x129D PUSH1 0x60 DUP7 ADD DUP3 PUSH2 0x10FA JUMP JUMPDEST POP PUSH1 0x80 DUP4 ADD MLOAD PUSH2 0x12B0 PUSH1 0x80 DUP7 ADD DUP3 PUSH2 0x1114 JUMP JUMPDEST POP DUP1 SWAP2 POP POP SWAP3 SWAP2 POP POP JUMP JUMPDEST PUSH0 PUSH1 0x20 DUP3 ADD SWAP1 POP DUP2 DUP2 SUB PUSH0 DUP4 ADD MSTORE PUSH2 0x12D3 DUP2 DUP5 PUSH2 0x1248 JUMP JUMPDEST SWAP1 POP SWAP3 SWAP2 POP POP JUMP JUMPDEST PUSH0 DUP1 REVERT JUMPDEST PUSH0 DUP1 REVERT JUMPDEST PUSH0 DUP1 REVERT JUMPDEST PUSH0 DUP1 DUP4 PUSH1 0x1F DUP5 ADD SLT PUSH2 0x12FC JUMPI PUSH2 0x12FB PUSH2 0x12DB JUMP JUMPDEST JUMPDEST DUP3 CALLDATALOAD SWAP1 POP PUSH8 0xFFFFFFFFFFFFFFFF DUP2 GT ISZERO PUSH2 0x1319 JUMPI PUSH2 0x1318 PUSH2 0x12DF JUMP JUMPDEST JUMPDEST PUSH1 0x20 DUP4 ADD SWAP2 POP DUP4 PUSH1 0x1 DUP3 MUL DUP4 ADD GT ISZERO PUSH2 0x1335 JUMPI PUSH2 0x1334 PUSH2 0x12E3 JUMP JUMPDEST JUMPDEST SWAP3 POP SWAP3 SWAP1 POP JUMP JUMPDEST PUSH0 DUP1 PUSH1 0x20 DUP4 DUP6 SUB SLT ISZERO PUSH2 0x1352 JUMPI PUSH2 0x1351 PUSH2 0xFB3 JUMP JUMPDEST JUMPDEST PUSH0 DUP4 ADD CALLDATALOAD PUSH8 0xFFFFFFFFFFFFFFFF DUP2 GT ISZERO PUSH2 0x136F JUMPI PUSH2 0x136E PUSH2 0xFB7 JUMP JUMPDEST JUMPDEST PUSH2 0x137B DUP6 DUP3 DUP7 ADD PUSH2 0x12E7 JUMP JUMPDEST SWAP3 POP SWAP3 POP POP SWAP3 POP SWAP3 SWAP1 POP JUMP JUMPDEST PUSH2 0x1390 DUP2 PUSH2 0xFBB JUMP JUMPDEST DUP3 MSTORE POP POP JUMP JUMPDEST PUSH0 PUSH1 0x40 DUP3 ADD SWAP1 POP PUSH2 0x13A9 PUSH0 DUP4 ADD DUP6 PUSH2 0x1387 JUMP JUMPDEST DUP2 DUP2 SUB PUSH1 0x20 DUP4 ADD MSTORE PUSH2 0x13BB DUP2 DUP5 PUSH2 0x1248 JUMP JUMPDEST SWAP1 POP SWAP4 SWAP3 POP POP POP JUMP JUMPDEST PUSH0 DUP1 PUSH0 DUP1 PUSH1 0x40 DUP6 DUP8 SUB SLT ISZERO PUSH2 0x13DC JUMPI PUSH2 0x13DB PUSH2 0xFB3 JUMP JUMPDEST JUMPDEST PUSH0 DUP6 ADD CALLDATALOAD PUSH8 0xFFFFFFFFFFFFFFFF DUP2 GT ISZERO PUSH2 0x13F9 JUMPI PUSH2 0x13F8 PUSH2 0xFB7 JUMP JUMPDEST JUMPDEST PUSH2 0x1405 DUP8 DUP3 DUP9 ADD PUSH2 0x12E7 JUMP JUMPDEST SWAP5 POP SWAP5 POP POP PUSH1 0x20 DUP6 ADD CALLDATALOAD PUSH8 0xFFFFFFFFFFFFFFFF DUP2 GT ISZERO PUSH2 0x1428 JUMPI PUSH2 0x1427 PUSH2 0xFB7 JUMP JUMPDEST JUMPDEST PUSH2 0x1434 DUP8 DUP3 DUP9 ADD PUSH2 0x12E7 JUMP JUMPDEST SWAP3 POP SWAP3 POP POP SWAP3 SWAP6 SWAP2 SWAP5 POP SWAP3 POP JUMP JUMPDEST PUSH2 0x144B DUP2 PUSH2 0x1109 JUMP JUMPDEST DUP3 MSTORE POP POP JUMP JUMPDEST PUSH0 PUSH1 0x20 DUP3 ADD SWAP1 POP PUSH2 0x1464 PUSH0 DUP4 ADD DUP5 PUSH2 0x1442 JUMP JUMPDEST SWAP3 SWAP2 POP POP JUMP JUMPDEST PUSH0 DUP1 PUSH0 PUSH1 0x40 DUP5 DUP7 SUB SLT ISZERO PUSH2 0x1481 JUMPI PUSH2 0x1480 PUSH2 0xFB3 JUMP JUMPDEST JUMPDEST PUSH0 PUSH2 0x148E DUP7 DUP3 DUP8 ADD PUSH2 0xFDA JUMP JUMPDEST SWAP4 POP POP PUSH1 0x20 DUP5 ADD CALLDATALOAD PUSH8 0xFFFFFFFFFFFFFFFF DUP2 GT ISZERO PUSH2 0x14AF JUMPI PUSH2 0x14AE PUSH2 0xFB7 JUMP JUMPDEST JUMPDEST PUSH2 0x14BB DUP7 DUP3 DUP8 ADD PUSH2 0x12E7 JUMP JUMPDEST SWAP3 POP SWAP3 POP POP SWAP3 POP SWAP3 POP SWAP3 JUMP JUMPDEST PUSH0 DUP1 REVERT JUMPDEST PUSH32 0x4E487B7100000000000000000000000000000000000000000000000000000000 PUSH0 MSTORE PUSH1 0x41 PUSH1 0x4 MSTORE PUSH1 0x24 PUSH0 REVERT JUMPDEST PUSH2 0x1501 DUP3 PUSH2 0x106A JUMP JUMPDEST DUP2 ADD DUP2 DUP2 LT PUSH8 0xFFFFFFFFFFFFFFFF DUP3 GT OR ISZERO PUSH2 0x1520 JUMPI PUSH2 0x151F PUSH2 0x14CB JUMP JUMPDEST JUMPDEST DUP1 PUSH1 0x40 MSTORE POP POP POP JUMP JUMPDEST PUSH0 PUSH2 0x1532 PUSH2 0xFAA JUMP JUMPDEST SWAP1 POP PUSH2 0x153E DUP3 DUP3 PUSH2 0x14F8 JUMP JUMPDEST SWAP2 SWAP1 POP JUMP JUMPDEST PUSH0 PUSH8 0xFFFFFFFFFFFFFFFF DUP3 GT ISZERO PUSH2 0x155D JUMPI PUSH2 0x155C PUSH2 0x14CB JUMP JUMPDEST JUMPDEST PUSH2 0x1566 DUP3 PUSH2 0x106A JUMP JUMPDEST SWAP1 POP PUSH1 0x20 DUP2 ADD SWAP1 POP SWAP2 SWAP1 POP JUMP JUMPDEST DUP3 DUP2 DUP4 CALLDATACOPY PUSH0 DUP4 DUP4 ADD MSTORE POP POP POP JUMP JUMPDEST PUSH0 PUSH2 0x1593 PUSH2 0x158E DUP5 PUSH2 0x1543 JUMP JUMPDEST PUSH2 0x1529 JUMP JUMPDEST SWAP1 POP DUP3 DUP2 MSTORE PUSH1 0x20 DUP2 ADD DUP5 DUP5 DUP5 ADD GT ISZERO PUSH2 0x15AF JUMPI PUSH2 0x15AE PUSH2 0x14C7 JUMP JUMPDEST JUMPDEST PUSH2 0x15BA DUP5 DUP3 DUP6 PUSH2 0x1573 JUMP JUMPDEST POP SWAP4 SWAP3 POP POP POP JUMP JUMPDEST PUSH0 DUP3 PUSH1 0x1F DUP4 ADD SLT PUSH2 0x15D6 JUMPI PUSH2 0x15D5 PUSH2 0x12DB JUMP JUMPDEST JUMPDEST DUP2 CALLDATALOAD PUSH2 0x15E6 DUP5 DUP3 PUSH1 0x20 DUP7 ADD PUSH2 0x1581 JUMP JUMPDEST SWAP2 POP POP SWAP3 SWAP2 POP POP JUMP JUMPDEST PUSH0 PUSH1 0x20 DUP3 DUP5 SUB SLT ISZERO PUSH2 0x1604 JUMPI PUSH2 0x1603 PUSH2 0xFB3 JUMP JUMPDEST JUMPDEST PUSH0 DUP3 ADD CALLDATALOAD PUSH8 0xFFFFFFFFFFFFFFFF DUP2 GT ISZERO PUSH2 0x1621 JUMPI PUSH2 0x1620 PUSH2 0xFB7 JUMP JUMPDEST JUMPDEST PUSH2 0x162D DUP5 DUP3 DUP6 ADD PUSH2 0x15C2 JUMP JUMPDEST SWAP2 POP POP SWAP3 SWAP2 POP POP JUMP JUMPDEST PUSH0 PUSH1 0x20 DUP3 ADD SWAP1 POP PUSH2 0x1649 PUSH0 DUP4 ADD DUP5 PUSH2 0x1387 JUMP JUMPDEST SWAP3 SWAP2 POP POP JUMP JUMPDEST PUSH32 0x4E487B7100000000000000000000000000000000000000000000000000000000 PUSH0 MSTORE PUSH1 0x22 PUSH1 0x4 MSTORE PUSH1 0x24 PUSH0 REVERT JUMPDEST PUSH0 PUSH1 0x2 DUP3 DIV SWAP1 POP PUSH1 0x1 DUP3 AND DUP1 PUSH2 0x1693 JUMPI PUSH1 0x7F DUP3 AND SWAP2 POP JUMPDEST PUSH1 0x20 DUP3 LT DUP2 SUB PUSH2 0x16A6 JUMPI PUSH2 0x16A5 PUSH2 0x164F JUMP JUMPDEST JUMPDEST POP SWAP2 SWAP1 POP JUMP JUMPDEST PUSH32 0x4E487B7100000000000000000000000000000000000000000000000000000000 PUSH0 MSTORE PUSH1 0x11 PUSH1 0x4 MSTORE PUSH1 0x24 PUSH0 REVERT JUMPDEST PUSH0 PUSH2 0x16E3 DUP3 PUSH2 0x10F1 JUMP JUMPDEST SWAP2 POP PUSH2 0x16EE DUP4 PUSH2 0x10F1 JUMP JUMPDEST SWAP3 POP DUP3 DUP3 SUB SWAP1 POP DUP2 DUP2 GT ISZERO PUSH2 0x1706 JUMPI PUSH2 0x1705 PUSH2 0x16AC JUMP JUMPDEST JUMPDEST SWAP3 SWAP2 POP POP JUMP JUMPDEST PUSH32 0x4E487B7100000000000000000000000000000000000000000000000000000000 PUSH0 MSTORE PUSH1 0x32 PUSH1 0x4 MSTORE PUSH1 0x24 PUSH0 REVERT JUMPDEST PUSH0 DUP3 DUP3 MSTORE PUSH1 0x20 DUP3 ADD SWAP1 POP SWAP3 SWAP2 POP POP JUMP JUMPDEST PUSH32 0x456D70747920737472696E67206E6F7420616C6C6F7765642E00000000000000 PUSH0 DUP3 ADD MSTORE POP JUMP JUMPDEST PUSH0 PUSH2 0x177D PUSH1 0x19 DUP4 PUSH2 0x1739 JUMP JUMPDEST SWAP2 POP PUSH2 0x1788 DUP3 PUSH2 0x1749 JUMP JUMPDEST PUSH1 0x20 DUP3 ADD SWAP1 POP SWAP2 SWAP1 POP JUMP JUMPDEST PUSH0 PUSH1 0x20 DUP3 ADD SWAP1 POP DUP2 DUP2 SUB PUSH0 DUP4 ADD MSTORE PUSH2 0x17AA DUP2 PUSH2 0x1771 JUMP JUMPDEST SWAP1 POP SWAP2 SWAP1 POP JUMP JUMPDEST PUSH32 0x4E6F74206E6F746172697A65642E000000000000000000000000000000000000 PUSH0 DUP3 ADD MSTORE POP JUMP JUMPDEST PUSH0 PUSH2 0x17E5 PUSH1 0xE DUP4 PUSH2 0x1739 JUMP JUMPDEST SWAP2 POP PUSH2 0x17F0 DUP3 PUSH2 0x17B1 JUMP JUMPDEST PUSH1 0x20 DUP3 ADD SWAP1 POP SWAP2 SWAP1 POP JUMP JUMPDEST PUSH0 PUSH1 0x20 DUP3 ADD SWAP1 POP DUP2 DUP2 SUB PUSH0 DUP4 ADD MSTORE PUSH2 0x1812 DUP2 PUSH2 0x17D9 JUMP JUMPDEST SWAP1 POP SWAP2 SWAP1 POP JUMP JUMPDEST PUSH32 0x4F6E6C79206F726967696E616C2073656E64657220616C6C6F7765642E000000 PUSH0 DUP3 ADD MSTORE POP JUMP JUMPDEST PUSH0 PUSH2 0x184D PUSH1 0x1D DUP4 PUSH2 0x1739 JUMP JUMPDEST SWAP2 POP PUSH2 0x1858 DUP3 PUSH2 0x1819 JUMP JUMPDEST PUSH1 0x20 DUP3 ADD SWAP1 POP SWAP2 SWAP1 POP JUMP JUMPDEST PUSH0 PUSH1 0x20 DUP3 ADD SWAP1 POP DUP2 DUP2 SUB PUSH0 DUP4 ADD MSTORE PUSH2 0x187A DUP2 PUSH2 0x1841 JUMP JUMPDEST SWAP1 POP SWAP2 SWAP1 POP JUMP JUMPDEST PUSH32 0x416C7265616479206E6F746172697A65642E0000000000000000000000000000 PUSH0 DUP3 ADD MSTORE POP JUMP JUMPDEST PUSH0 PUSH2 0x18B5 PUSH1 0x12 DUP4 PUSH2 0x1739 JUMP JUMPDEST SWAP2 POP PUSH2 0x18C0 DUP3 PUSH2 0x1881 JUMP JUMPDEST PUSH1 0x20 DUP3 ADD SWAP1 POP SWAP2 SWAP1 POP JUMP JUMPDEST PUSH0 PUSH1 0x20 DUP3 ADD SWAP1 POP DUP2 DUP2 SUB PUSH0 DUP4 ADD MSTORE PUSH2 0x18E2 DUP2 PUSH2 0x18A9 JUMP JUMPDEST SWAP1 POP SWAP2 SWAP1 POP JUMP JUMPDEST PUSH0 DUP2 SWAP1 POP SWAP3 SWAP2 POP POP JUMP JUMPDEST PUSH0 PUSH2 0x18FE DUP4 DUP6 PUSH2 0x18E9 JUMP JUMPDEST SWAP4 POP PUSH2 0x190B DUP4 DUP6 DUP5 PUSH2 0x1573 JUMP JUMPDEST DUP3 DUP5 ADD SWAP1 POP SWAP4 SWAP3 POP POP POP JUMP JUMPDEST PUSH0 PUSH2 0x1923 DUP3 DUP5 DUP7 PUSH2 0x18F3 JUMP JUMPDEST SWAP2 POP DUP2 SWAP1 POP SWAP4 SWAP3 POP POP POP JUMP JUMPDEST PUSH32 0x4E756C6C2068617368206E6F7420616C6C6F7765642E00000000000000000000 PUSH0 DUP3 ADD MSTORE POP JUMP JUMPDEST PUSH0 PUSH2 0x1963 PUSH1 0x16 DUP4 PUSH2 0x1739 JUMP JUMPDEST SWAP2 POP PUSH2 0x196E DUP3 PUSH2 0x192F JUMP JUMPDEST PUSH1 0x20 DUP3 ADD SWAP1 POP SWAP2 SWAP1 POP JUMP JUMPDEST PUSH0 PUSH1 0x20 DUP3 ADD SWAP1 POP DUP2 DUP2 SUB PUSH0 DUP4 ADD MSTORE PUSH2 0x1990 DUP2 PUSH2 0x1957 JUMP JUMPDEST SWAP1 POP SWAP2 SWAP1 POP JUMP JUMPDEST PUSH0 DUP2 SWAP1 POP DUP2 PUSH0 MSTORE PUSH1 0x20 PUSH0 KECCAK256 SWAP1 POP SWAP2 SWAP1 POP JUMP JUMPDEST PUSH0 PUSH1 0x20 PUSH1 0x1F DUP4 ADD DIV SWAP1 POP SWAP2 SWAP1 POP JUMP JUMPDEST PUSH0 DUP3 DUP3 SHL SWAP1 POP SWAP3 SWAP2 POP POP JUMP JUMPDEST PUSH0 PUSH1 0x8 DUP4 MUL PUSH2 0x19F3 PUSH32 0xFFFFFFFFFFFFFFFFFFFFFFFFFFFFFFFFFFFFFFFFFFFFFFFFFFFFFFFFFFFFFFFF DUP3 PUSH2 0x19B8 JUMP JUMPDEST PUSH2 0x19FD DUP7 DUP4 PUSH2 0x19B8 JUMP JUMPDEST SWAP6 POP DUP1 NOT DUP5 AND SWAP4 POP DUP1 DUP7 AND DUP5 OR SWAP3 POP POP POP SWAP4 SWAP3 POP POP POP JUMP JUMPDEST PUSH0 DUP2 SWAP1 POP SWAP2 SWAP1 POP JUMP JUMPDEST PUSH0 PUSH2 0x1A38 PUSH2 0x1A33 PUSH2 0x1A2E DUP5 PUSH2 0x10F1 JUMP JUMPDEST PUSH2 0x1A15 JUMP JUMPDEST PUSH2 0x10F1 JUMP JUMPDEST SWAP1 POP SWAP2 SWAP1 POP JUMP JUMPDEST PUSH0 DUP2 SWAP1 POP SWAP2 SWAP1 POP JUMP JUMPDEST PUSH2 0x1A51 DUP4 PUSH2 0x1A1E JUMP JUMPDEST PUSH2 0x1A65 PUSH2 0x1A5D DUP3 PUSH2 0x1A3F JUMP JUMPDEST DUP5 DUP5 SLOAD PUSH2 0x19C4 JUMP JUMPDEST DUP3 SSTORE POP POP POP POP JUMP JUMPDEST PUSH0 SWAP1 JUMP JUMPDEST PUSH2 0x1A79 PUSH2 0x1A6D JUMP JUMPDEST PUSH2 0x1A84 DUP2 DUP5 DUP5 PUSH2 0x1A48 JUMP JUMPDEST POP POP POP JUMP JUMPDEST JUMPDEST DUP2 DUP2 LT ISZERO PUSH2 0x1AA7 JUMPI PUSH2 0x1A9C PUSH0 DUP3 PUSH2 0x1A71 JUMP JUMPDEST PUSH1 0x1 DUP2 ADD SWAP1 POP PUSH2 0x1A8A JUMP JUMPDEST POP POP JUMP JUMPDEST PUSH1 0x1F DUP3 GT ISZERO PUSH2 0x1AEC JUMPI PUSH2 0x1ABD DUP2 PUSH2 0x1997 JUMP JUMPDEST PUSH2 0x1AC6 DUP5 PUSH2 0x19A9 JUMP JUMPDEST DUP2 ADD PUSH1 0x20 DUP6 LT ISZERO PUSH2 0x1AD5 JUMPI DUP2 SWAP1 POP JUMPDEST PUSH2 0x1AE9 PUSH2 0x1AE1 DUP6 PUSH2 0x19A9 JUMP JUMPDEST DUP4 ADD DUP3 PUSH2 0x1A89 JUMP JUMPDEST POP POP JUMPDEST POP POP POP JUMP JUMPDEST PUSH0 DUP3 DUP3 SHR SWAP1 POP SWAP3 SWAP2 POP POP JUMP JUMPDEST PUSH0 PUSH2 0x1B0C PUSH0 NOT DUP5 PUSH1 0x8 MUL PUSH2 0x1AF1 JUMP JUMPDEST NOT DUP1 DUP4 AND SWAP2 POP POP SWAP3 SWAP2 POP POP JUMP JUMPDEST PUSH0 PUSH2 0x1B24 DUP4 DUP4 PUSH2 0x1AFD JUMP JUMPDEST SWAP2 POP DUP3 PUSH1 0x2 MUL DUP3 OR SWAP1 POP SWAP3 SWAP2 POP POP JUMP JUMPDEST PUSH2 0x1B3D DUP3 PUSH2 0x1042 JUMP JUMPDEST PUSH8 0xFFFFFFFFFFFFFFFF DUP2 GT ISZERO PUSH2 0x1B56 JUMPI PUSH2 0x1B55 PUSH2 0x14CB JUMP JUMPDEST JUMPDEST PUSH2 0x1B60 DUP3 SLOAD PUSH2 0x167C JUMP JUMPDEST PUSH2 0x1B6B DUP3 DUP3 DUP6 PUSH2 0x1AAB JUMP JUMPDEST PUSH0 PUSH1 0x20 SWAP1 POP PUSH1 0x1F DUP4 GT PUSH1 0x1 DUP2 EQ PUSH2 0x1B9C JUMPI PUSH0 DUP5 ISZERO PUSH2 0x1B8A JUMPI DUP3 DUP8 ADD MLOAD SWAP1 POP JUMPDEST PUSH2 0x1B94 DUP6 DUP3 PUSH2 0x1B19 JUMP JUMPDEST DUP7 SSTORE POP PUSH2 0x1BFB JUMP JUMPDEST PUSH1 0x1F NOT DUP5 AND PUSH2 0x1BAA DUP7 PUSH2 0x1997 JUMP JUMPDEST PUSH0 JUMPDEST DUP3 DUP2 LT ISZERO PUSH2 0x1BD1 JUMPI DUP5 DUP10 ADD MLOAD DUP3 SSTORE PUSH1 0x1 DUP3 ADD SWAP2 POP PUSH1 0x20 DUP6 ADD SWAP5 POP PUSH1 0x20 DUP2 ADD SWAP1 POP PUSH2 0x1BAC JUMP JUMPDEST DUP7 DUP4 LT ISZERO PUSH2 0x1BEE JUMPI DUP5 DUP10 ADD MLOAD PUSH2 0x1BEA PUSH1 0x1F DUP10 AND DUP3 PUSH2 0x1AFD JUMP JUMPDEST DUP4 SSTORE POP JUMPDEST PUSH1 0x1 PUSH1 0x2 DUP9 MUL ADD DUP9 SSTORE POP POP POP JUMPDEST POP POP POP POP POP POP JUMP INVALID LOG2 PUSH5 0x6970667358 0x22 SLT KECCAK256 PUSH10 0x37D4B861800811D3CA01 0xEB LOG4 0xC7 0xE0 PUSH15 0x107F70F9AF1B5BC23C0CF21CE51224 DUP10 PUSH5 0x736F6C6343 STOP ADDMOD BYTE STOP CALLER "
		},
		"gasEstimates": {
			"creation": {
				"codeDepositCost": "1445000",
				"executionCost": "1504",
				"totalCost": "1446504"
			},
			"external": {
				"cancel(string,string)": "infinite",
				"cancelDocumentOnly(string)": "infinite",
				"certify(string,string)": "infinite",
				"certifyDocumentOnly(string)": "infinite",
				"check(string)": "infinite",
				"createProofHash(string)": "infinite",
				"getHistory(bytes32)": "infinite",
				"getProof(bytes32)": "infinite",
				"notarize(bytes32,string)": "infinite",
				"notarizeHashOnly(bytes32)": "infinite",
				"nullify(bytes32,string)": "infinite",
				"nullifyHashOnly(bytes32)": "infinite",
				"verify(bytes32)": "infinite"
			},
			"internal": {
				"digest(string calldata)": "infinite",
				"register(bytes32,address,bool)": "infinite",
				"register(bytes32,string calldata,address,bool)": "infinite"
			}
		},
		"methodIdentifiers": {
			"cancel(string,string)": "660d72c1",
			"cancelDocumentOnly(string)": "464785ca",
			"certify(string,string)": "7044c63c",
			"certifyDocumentOnly(string)": "4077faa6",
			"check(string)": "b6f921ad",
			"createProofHash(string)": "eb9316c0",
			"getHistory(bytes32)": "115d620d",
			"getProof(bytes32)": "1b80bb3a",
			"notarize(bytes32,string)": "d0077945",
			"notarizeHashOnly(bytes32)": "a87107ca",
			"nullify(bytes32,string)": "84458197",
			"nullifyHashOnly(bytes32)": "fbcd9272",
			"verify(bytes32)": "75e36616"
		}
	},
	"abi": [
		{
			"anonymous": false,
			"inputs": [
				{
					"indexed": false,
					"internalType": "bytes32",
					"name": "",
					"type": "bytes32"
				},
				{
					"components": [
						{
							"internalType": "string",
							"name": "description",
							"type": "string"
						},
						{
							"internalType": "address",
							"name": "provider",
							"type": "address"
						},
						{
							"internalType": "uint256",
							"name": "timestamp",
							"type": "uint256"
						},
						{
							"internalType": "uint256",
							"name": "blockNumber",
							"type": "uint256"
						},
						{
							"internalType": "bool",
							"name": "isNotarized",
							"type": "bool"
						}
					],
					"indexed": false,
					"internalType": "struct ProofOfExistence.Proof",
					"name": "",
					"type": "tuple"
				}
			],
			"name": "Notarized",
			"type": "event"
		},
		{
			"anonymous": false,
			"inputs": [
				{
					"indexed": false,
					"internalType": "bytes32",
					"name": "",
					"type": "bytes32"
				},
				{
					"components": [
						{
							"internalType": "string",
							"name": "description",
							"type": "string"
						},
						{
							"internalType": "address",
							"name": "provider",
							"type": "address"
						},
						{
							"internalType": "uint256",
							"name": "timestamp",
							"type": "uint256"
						},
						{
							"internalType": "uint256",
							"name": "blockNumber",
							"type": "uint256"
						},
						{
							"internalType": "bool",
							"name": "isNotarized",
							"type": "bool"
						}
					],
					"indexed": false,
					"internalType": "struct ProofOfExistence.Proof",
					"name": "",
					"type": "tuple"
				}
			],
			"name": "Nullified",
			"type": "event"
		},
		{
			"inputs": [
				{
					"internalType": "string",
					"name": "document",
					"type": "string"
				},
				{
					"internalType": "string",
					"name": "metadata",
					"type": "string"
				}
			],
			"name": "cancel",
			"outputs": [
				{
					"internalType": "bytes32",
					"name": "hash",
					"type": "bytes32"
				},
				{
					"components": [
						{
							"internalType": "string",
							"name": "description",
							"type": "string"
						},
						{
							"internalType": "address",
							"name": "provider",
							"type": "address"
						},
						{
							"internalType": "uint256",
							"name": "timestamp",
							"type": "uint256"
						},
						{
							"internalType": "uint256",
							"name": "blockNumber",
							"type": "uint256"
						},
						{
							"internalType": "bool",
							"name": "isNotarized",
							"type": "bool"
						}
					],
					"internalType": "struct ProofOfExistence.Proof",
					"name": "proof",
					"type": "tuple"
				}
			],
			"stateMutability": "nonpayable",
			"type": "function"
		},
		{
			"inputs": [
				{
					"internalType": "string",
					"name": "document",
					"type": "string"
				}
			],
			"name": "cancelDocumentOnly",
			"outputs": [
				{
					"internalType": "bytes32",
					"name": "hash",
					"type": "bytes32"
				},
				{
					"components": [
						{
							"internalType": "string",
							"name": "description",
							"type": "string"
						},
						{
							"internalType": "address",
							"name": "provider",
							"type": "address"
						},
						{
							"internalType": "uint256",
							"name": "timestamp",
							"type": "uint256"
						},
						{
							"internalType": "uint256",
							"name": "blockNumber",
							"type": "uint256"
						},
						{
							"internalType": "bool",
							"name": "isNotarized",
							"type": "bool"
						}
					],
					"internalType": "struct ProofOfExistence.Proof",
					"name": "proof",
					"type": "tuple"
				}
			],
			"stateMutability": "nonpayable",
			"type": "function"
		},
		{
			"inputs": [
				{
					"internalType": "string",
					"name": "document",
					"type": "string"
				},
				{
					"internalType": "string",
					"name": "metadata",
					"type": "string"
				}
			],
			"name": "certify",
			"outputs": [
				{
					"internalType": "bytes32",
					"name": "hash",
					"type": "bytes32"
				},
				{
					"components": [
						{
							"internalType": "string",
							"name": "description",
							"type": "string"
						},
						{
							"internalType": "address",
							"name": "provider",
							"type": "address"
						},
						{
							"internalType": "uint256",
							"name": "timestamp",
							"type": "uint256"
						},
						{
							"internalType": "uint256",
							"name": "blockNumber",
							"type": "uint256"
						},
						{
							"internalType": "bool",
							"name": "isNotarized",
							"type": "bool"
						}
					],
					"internalType": "struct ProofOfExistence.Proof",
					"name": "proof",
					"type": "tuple"
				}
			],
			"stateMutability": "nonpayable",
			"type": "function"
		},
		{
			"inputs": [
				{
					"internalType": "string",
					"name": "document",
					"type": "string"
				}
			],
			"name": "certifyDocumentOnly",
			"outputs": [
				{
					"internalType": "bytes32",
					"name": "hash",
					"type": "bytes32"
				},
				{
					"components": [
						{
							"internalType": "string",
							"name": "description",
							"type": "string"
						},
						{
							"internalType": "address",
							"name": "provider",
							"type": "address"
						},
						{
							"internalType": "uint256",
							"name": "timestamp",
							"type": "uint256"
						},
						{
							"internalType": "uint256",
							"name": "blockNumber",
							"type": "uint256"
						},
						{
							"internalType": "bool",
							"name": "isNotarized",
							"type": "bool"
						}
					],
					"internalType": "struct ProofOfExistence.Proof",
					"name": "proof",
					"type": "tuple"
				}
			],
			"stateMutability": "nonpayable",
			"type": "function"
		},
		{
			"inputs": [
				{
					"internalType": "string",
					"name": "document",
					"type": "string"
				}
			],
			"name": "check",
			"outputs": [
				{
					"internalType": "bool",
					"name": "state",
					"type": "bool"
				}
			],
			"stateMutability": "view",
			"type": "function"
		},
		{
			"inputs": [
				{
					"internalType": "string",
					"name": "document",
					"type": "string"
				}
			],
			"name": "createProofHash",
			"outputs": [
				{
					"internalType": "bytes32",
					"name": "hash",
					"type": "bytes32"
				}
			],
			"stateMutability": "pure",
			"type": "function"
		},
		{
			"inputs": [
				{
					"internalType": "bytes32",
					"name": "hash",
					"type": "bytes32"
				}
			],
			"name": "getHistory",
			"outputs": [
				{
					"components": [
						{
							"internalType": "string",
							"name": "description",
							"type": "string"
						},
						{
							"internalType": "address",
							"name": "provider",
							"type": "address"
						},
						{
							"internalType": "uint256",
							"name": "timestamp",
							"type": "uint256"
						},
						{
							"internalType": "uint256",
							"name": "blockNumber",
							"type": "uint256"
						},
						{
							"internalType": "bool",
							"name": "isNotarized",
							"type": "bool"
						}
					],
					"internalType": "struct ProofOfExistence.Proof[]",
					"name": "history",
					"type": "tuple[]"
				}
			],
			"stateMutability": "view",
			"type": "function"
		},
		{
			"inputs": [
				{
					"internalType": "bytes32",
					"name": "hash",
					"type": "bytes32"
				}
			],
			"name": "getProof",
			"outputs": [
				{
					"components": [
						{
							"internalType": "string",
							"name": "description",
							"type": "string"
						},
						{
							"internalType": "address",
							"name": "provider",
							"type": "address"
						},
						{
							"internalType": "uint256",
							"name": "timestamp",
							"type": "uint256"
						},
						{
							"internalType": "uint256",
							"name": "blockNumber",
							"type": "uint256"
						},
						{
							"internalType": "bool",
							"name": "isNotarized",
							"type": "bool"
						}
					],
					"internalType": "struct ProofOfExistence.Proof",
					"name": "proof",
					"type": "tuple"
				}
			],
			"stateMutability": "view",
			"type": "function"
		},
		{
			"inputs": [
				{
					"internalType": "bytes32",
					"name": "hash",
					"type": "bytes32"
				},
				{
					"internalType": "string",
					"name": "metadata",
					"type": "string"
				}
			],
			"name": "notarize",
			"outputs": [
				{
					"components": [
						{
							"internalType": "string",
							"name": "description",
							"type": "string"
						},
						{
							"internalType": "address",
							"name": "provider",
							"type": "address"
						},
						{
							"internalType": "uint256",
							"name": "timestamp",
							"type": "uint256"
						},
						{
							"internalType": "uint256",
							"name": "blockNumber",
							"type": "uint256"
						},
						{
							"internalType": "bool",
							"name": "isNotarized",
							"type": "bool"
						}
					],
					"internalType": "struct ProofOfExistence.Proof",
					"name": "proof",
					"type": "tuple"
				}
			],
			"stateMutability": "nonpayable",
			"type": "function"
		},
		{
			"inputs": [
				{
					"internalType": "bytes32",
					"name": "hash",
					"type": "bytes32"
				}
			],
			"name": "notarizeHashOnly",
			"outputs": [
				{
					"components": [
						{
							"internalType": "string",
							"name": "description",
							"type": "string"
						},
						{
							"internalType": "address",
							"name": "provider",
							"type": "address"
						},
						{
							"internalType": "uint256",
							"name": "timestamp",
							"type": "uint256"
						},
						{
							"internalType": "uint256",
							"name": "blockNumber",
							"type": "uint256"
						},
						{
							"internalType": "bool",
							"name": "isNotarized",
							"type": "bool"
						}
					],
					"internalType": "struct ProofOfExistence.Proof",
					"name": "proof",
					"type": "tuple"
				}
			],
			"stateMutability": "nonpayable",
			"type": "function"
		},
		{
			"inputs": [
				{
					"internalType": "bytes32",
					"name": "hash",
					"type": "bytes32"
				},
				{
					"internalType": "string",
					"name": "metadata",
					"type": "string"
				}
			],
			"name": "nullify",
			"outputs": [
				{
					"components": [
						{
							"internalType": "string",
							"name": "description",
							"type": "string"
						},
						{
							"internalType": "address",
							"name": "provider",
							"type": "address"
						},
						{
							"internalType": "uint256",
							"name": "timestamp",
							"type": "uint256"
						},
						{
							"internalType": "uint256",
							"name": "blockNumber",
							"type": "uint256"
						},
						{
							"internalType": "bool",
							"name": "isNotarized",
							"type": "bool"
						}
					],
					"internalType": "struct ProofOfExistence.Proof",
					"name": "proof",
					"type": "tuple"
				}
			],
			"stateMutability": "nonpayable",
			"type": "function"
		},
		{
			"inputs": [
				{
					"internalType": "bytes32",
					"name": "hash",
					"type": "bytes32"
				}
			],
			"name": "nullifyHashOnly",
			"outputs": [
				{
					"components": [
						{
							"internalType": "string",
							"name": "description",
							"type": "string"
						},
						{
							"internalType": "address",
							"name": "provider",
							"type": "address"
						},
						{
							"internalType": "uint256",
							"name": "timestamp",
							"type": "uint256"
						},
						{
							"internalType": "uint256",
							"name": "blockNumber",
							"type": "uint256"
						},
						{
							"internalType": "bool",
							"name": "isNotarized",
							"type": "bool"
						}
					],
					"internalType": "struct ProofOfExistence.Proof",
					"name": "proof",
					"type": "tuple"
				}
			],
			"stateMutability": "nonpayable",
			"type": "function"
		},
		{
			"inputs": [
				{
					"internalType": "bytes32",
					"name": "hash",
					"type": "bytes32"
				}
			],
			"name": "verify",
			"outputs": [
				{
					"internalType": "bool",
					"name": "state",
					"type": "bool"
				}
			],
			"stateMutability": "view",
			"type": "function"
		}
	]
}