{
  "contractName": "MonitoringDataNotarization",
  "abi": [
    {
      "inputs": [
        {
          "internalType": "uint16",
          "name": "timeslotInSeconds",
          "type": "uint16"
        }
      ],
      "stateMutability": "nonpayable",
      "type": "constructor"
    },
    {
      "anonymous": false,
      "inputs": [
        {
          "indexed": false,
          "internalType": "uint256",
          "name": "timestamp",
          "type": "uint256"
        },
        {
          "components": [
            {
              "internalType": "string",
              "name": "label",
              "type": "string"
            },
            {
              "internalType": "bytes32",
              "name": "hash",
              "type": "bytes32"
            }
          ],
          "indexed": false,
          "internalType": "struct MonitoringDataNotarization.Measurement",
          "name": "measurement",
          "type": "tuple"
        }
      ],
      "name": "Notarized",
      "type": "event"
    },
    {
      "inputs": [
        {
          "internalType": "address",
          "name": "provider",
          "type": "address"
        },
        {
          "internalType": "uint256",
          "name": "timestamp",
          "type": "uint256"
        },
        {
          "internalType": "string",
          "name": "label",
          "type": "string"
        },
        {
          "internalType": "bytes32",
          "name": "hash",
          "type": "bytes32"
        }
      ],
      "name": "addMeasurement",
      "outputs": [
        {
          "internalType": "uint256",
          "name": "timestampInSeconds",
          "type": "uint256"
        },
        {
          "components": [
            {
              "internalType": "string",
              "name": "label",
              "type": "string"
            },
            {
              "internalType": "bytes32",
              "name": "hash",
              "type": "bytes32"
            }
          ],
          "internalType": "struct MonitoringDataNotarization.Measurement",
          "name": "measurement",
          "type": "tuple"
        }
      ],
      "stateMutability": "nonpayable",
      "type": "function"
    },
    {
      "inputs": [
        {
          "internalType": "address",
          "name": "provider",
          "type": "address"
        },
        {
          "internalType": "uint256",
          "name": "timestamp",
          "type": "uint256"
        }
      ],
      "name": "getMeasurement",
      "outputs": [
        {
          "components": [
            {
              "internalType": "string",
              "name": "label",
              "type": "string"
            },
            {
              "internalType": "bytes32",
              "name": "hash",
              "type": "bytes32"
            }
          ],
          "internalType": "struct MonitoringDataNotarization.Measurement",
          "name": "measurement",
          "type": "tuple"
        }
      ],
      "stateMutability": "view",
      "type": "function",
      "constant": true
    },
    {
      "inputs": [
        {
          "internalType": "string",
          "name": "data",
          "type": "string"
        }
      ],
      "name": "encodeHash",
      "outputs": [
        {
          "internalType": "bytes32",
          "name": "measurementHash",
          "type": "bytes32"
        }
      ],
      "stateMutability": "pure",
      "type": "function",
      "constant": true
    },
    {
      "inputs": [
        {
          "internalType": "uint256",
          "name": "timestamp",
          "type": "uint256"
        }
      ],
      "name": "getLabel",
      "outputs": [
        {
          "internalType": "uint256",
          "name": "normalizedTimestamp",
          "type": "uint256"
        },
        {
          "internalType": "string",
          "name": "measurementLabel",
          "type": "string"
        }
      ],
      "stateMutability": "view",
      "type": "function",
      "constant": true
    },
    {
      "inputs": [],
      "name": "getTimeslotDuration",
      "outputs": [
        {
          "internalType": "uint16",
          "name": "timeslotInSeconds",
          "type": "uint16"
        }
      ],
      "stateMutability": "view",
      "type": "function",
      "constant": true
    },
    {
      "inputs": [],
      "name": "getTimestamp",
      "outputs": [
        {
          "internalType": "uint256",
          "name": "timestampInSeconds",
          "type": "uint256"
        }
      ],
      "stateMutability": "view",
      "type": "function",
      "constant": true
    },
    {
      "inputs": [
        {
          "internalType": "uint256",
          "name": "timestamp",
          "type": "uint256"
        }
      ],
      "name": "normalize",
      "outputs": [
        {
          "internalType": "uint256",
          "name": "normalizedTimestamp",
          "type": "uint256"
        }
      ],
      "stateMutability": "view",
      "type": "function",
      "constant": true
    },
    {
      "inputs": [
        {
          "internalType": "string",
          "name": "label",
          "type": "string"
        },
        {
          "internalType": "string",
          "name": "data",
          "type": "string"
        }
      ],
      "name": "certify",
      "outputs": [
        {
          "internalType": "uint256",
          "name": "timestampInSeconds",
          "type": "uint256"
        },
        {
          "components": [
            {
              "internalType": "string",
              "name": "label",
              "type": "string"
            },
            {
              "internalType": "bytes32",
              "name": "hash",
              "type": "bytes32"
            }
          ],
          "internalType": "struct MonitoringDataNotarization.Measurement",
          "name": "measurement",
          "type": "tuple"
        }
      ],
      "stateMutability": "nonpayable",
      "type": "function"
    },
    {
      "inputs": [
        {
          "internalType": "uint256",
          "name": "timestamp",
          "type": "uint256"
        },
        {
          "internalType": "string",
          "name": "label",
          "type": "string"
        },
        {
          "internalType": "bytes32",
          "name": "hash",
          "type": "bytes32"
        }
      ],
      "name": "notarize",
      "outputs": [
        {
          "internalType": "uint256",
          "name": "timestampInSeconds",
          "type": "uint256"
        },
        {
          "components": [
            {
              "internalType": "string",
              "name": "label",
              "type": "string"
            },
            {
              "internalType": "bytes32",
              "name": "hash",
              "type": "bytes32"
            }
          ],
          "internalType": "struct MonitoringDataNotarization.Measurement",
          "name": "measurement",
          "type": "tuple"
        }
      ],
      "stateMutability": "nonpayable",
      "type": "function"
    },
    {
      "inputs": [
        {
          "internalType": "uint256",
          "name": "timestamp",
          "type": "uint256"
        },
        {
          "internalType": "string",
          "name": "data",
          "type": "string"
        }
      ],
      "name": "check",
      "outputs": [
        {
          "internalType": "bool",
          "name": "isNotarized",
          "type": "bool"
        }
      ],
      "stateMutability": "view",
      "type": "function",
      "constant": true
    },
    {
      "inputs": [
        {
          "internalType": "uint256",
          "name": "timestamp",
          "type": "uint256"
        },
        {
          "internalType": "bytes32",
          "name": "hash",
          "type": "bytes32"
        }
      ],
      "name": "verify",
      "outputs": [
        {
          "internalType": "bool",
          "name": "isNotarized",
          "type": "bool"
        }
      ],
      "stateMutability": "view",
      "type": "function",
      "constant": true
    }
  ],
  "bytecode": "0x60806040523480156200001157600080fd5b5060405162001af238038062001af28339818101604052810190620000379190620000b3565b33600160026101000a81548173ffffffffffffffffffffffffffffffffffffffff021916908373ffffffffffffffffffffffffffffffffffffffff16021790555080600160006101000a81548161ffff021916908361ffff1602179055505062000107565b600081519050620000ad81620000ed565b92915050565b600060208284031215620000c657600080fd5b6000620000d6848285016200009c565b91505092915050565b600061ffff82169050919050565b620000f881620000df565b81146200010457600080fd5b50565b6119db80620001176000396000f3fe608060405234801561001057600080fd5b50600436106100a85760003560e01c80637044c63c116100715780637044c63c1461018b5780639ac94f07146101bc578063a2e706a7146101ec578063b21bf7fa1461021d578063d37899571461024e578063eae58ad01461027f576100a8565b8062dd6eef146100ad578063188ec356146100dd5780631d97ce31146100fb5780633eaec8851461012b5780633edee90e1461015b575b600080fd5b6100c760048036038101906100c291906111f8565b61029d565b6040516100d49190611784565b60405180910390f35b6100e56102da565b6040516100f29190611784565b60405180910390f35b61011560048036038101906101109190611221565b6102e2565b6040516101229190611671565b60405180910390f35b61014560048036038101906101409190611082565b610486565b6040516101529190611747565b60405180910390f35b6101756004803603810190610170919061125d565b61062c565b6040516101829190611671565b60405180910390f35b6101a560048036038101906101a09190611183565b610652565b6040516101b39291906117cf565b60405180910390f35b6101d660048036038101906101d1919061113e565b61068d565b6040516101e3919061168c565b60405180910390f35b610206600480360381019061020191906112b5565b6106c0565b6040516102149291906117cf565b60405180910390f35b610237600480360381019061023291906111f8565b610a7f565b60405161024592919061179f565b60405180910390f35b610268600480360381019061026391906110be565b610c1c565b6040516102769291906117cf565b60405180910390f35b610287610f27565b6040516102949190611769565b60405180910390f35b6000600160009054906101000a900461ffff1661ffff16600160009054906101000a900461ffff1661ffff1683816102d157fe5b04029050919050565b600042905090565b600080821415610327576040517f08c379a000000000000000000000000000000000000000000000000000000000815260040161031e906116c7565b60405180910390fd5b60008311801561035457506000600160009054906101000a900461ffff1661ffff16848161035157fe5b06145b610393576040517f08c379a000000000000000000000000000000000000000000000000000000000815260040161038a90611707565b60405180910390fd5b60008060003373ffffffffffffffffffffffffffffffffffffffff1673ffffffffffffffffffffffffffffffffffffffff1681526020019081526020016000206000858152602001908152602001600020600101541415610429576040517f08c379a000000000000000000000000000000000000000000000000000000000815260040161042090611727565b60405180910390fd5b816000803373ffffffffffffffffffffffffffffffffffffffff1673ffffffffffffffffffffffffffffffffffffffff16815260200190815260200160002060008581526020019081526020016000206001015414905092915050565b61048e610f3f565b600160029054906101000a900473ffffffffffffffffffffffffffffffffffffffff1673ffffffffffffffffffffffffffffffffffffffff163373ffffffffffffffffffffffffffffffffffffffff161461051e576040517f08c379a0000000000000000000000000000000000000000000000000000000008152600401610515906116a7565b60405180910390fd5b6000808473ffffffffffffffffffffffffffffffffffffffff1673ffffffffffffffffffffffffffffffffffffffff1681526020019081526020016000206000838152602001908152602001600020604051806040016040529081600082018054600181600116156101000203166002900480601f0160208091040260200160405190810160405280929190818152602001828054600181600116156101000203166002900480156106115780601f106105e657610100808354040283529160200191610611565b820191906000526020600020905b8154815290600101906020018083116105f457829003601f168201915b50505050508152602001600182015481525050905092915050565b600061064961063a8561029d565b610644858561068d565b6102e2565b90509392505050565b600061065c610f3f565b61068061066f61066a6102da565b61029d565b878761067b888861068d565b6106c0565b9150915094509492505050565b600082826040516020016106a2929190611658565b60405160208183030381529060405280519060200120905092915050565b60006106ca610f3f565b600083141561070e576040517f08c379a0000000000000000000000000000000000000000000000000000000008152600401610705906116c7565b60405180910390fd5b60008611801561073b57506000600160009054906101000a900461ffff1661ffff16878161073857fe5b06145b61077a576040517f08c379a000000000000000000000000000000000000000000000000000000000815260040161077190611707565b60405180910390fd5b60008060003373ffffffffffffffffffffffffffffffffffffffff1673ffffffffffffffffffffffffffffffffffffffff1681526020019081526020016000206000888152602001908152602001600020600101541461080f576040517f08c379a0000000000000000000000000000000000000000000000000000000008152600401610806906116e7565b60405180910390fd5b604051806040016040528086868080601f016020809104026020016040519081016040528093929190818152602001838380828437600081840152601f19601f820116905080830192505050505050508152602001848152506000803373ffffffffffffffffffffffffffffffffffffffff1673ffffffffffffffffffffffffffffffffffffffff168152602001908152602001600020600088815260200190815260200160002060008201518160000190805190602001906108d3929190610f5c565b50602082015181600101559050507f9d6452ee68cbb3570d3a1d9e86c41ac426aafd3a08349ec57aac7666fa74e122866000803373ffffffffffffffffffffffffffffffffffffffff1673ffffffffffffffffffffffffffffffffffffffff16815260200190815260200160002060008981526020019081526020016000206040516109609291906117ff565b60405180910390a1856000803373ffffffffffffffffffffffffffffffffffffffff1673ffffffffffffffffffffffffffffffffffffffff168152602001908152602001600020600088815260200190815260200160002080604051806040016040529081600082018054600181600116156101000203166002900480601f016020809104026020016040519081016040528092919081815260200182805460018160011615610100020316600290048015610a5d5780601f10610a3257610100808354040283529160200191610a5d565b820191906000526020600020905b815481529060010190602001808311610a4057829003601f168201915b5050505050815260200160018201548152505090509150915094509492505050565b60006060610a8c8361029d565b925060008060003373ffffffffffffffffffffffffffffffffffffffff1673ffffffffffffffffffffffffffffffffffffffff1681526020019081526020016000206000858152602001908152602001600020600101541415610b24576040517f08c379a0000000000000000000000000000000000000000000000000000000008152600401610b1b90611727565b60405180910390fd5b826000803373ffffffffffffffffffffffffffffffffffffffff1673ffffffffffffffffffffffffffffffffffffffff1681526020019081526020016000206000858152602001908152602001600020600001808054600181600116156101000203166002900480601f016020809104026020016040519081016040528092919081815260200182805460018160011615610100020316600290048015610c0c5780601f10610be157610100808354040283529160200191610c0c565b820191906000526020600020905b815481529060010190602001808311610bef57829003601f168201915b5050505050905091509150915091565b6000610c26610f3f565b600160029054906101000a900473ffffffffffffffffffffffffffffffffffffffff1673ffffffffffffffffffffffffffffffffffffffff163373ffffffffffffffffffffffffffffffffffffffff1614610cb6576040517f08c379a0000000000000000000000000000000000000000000000000000000008152600401610cad906116a7565b60405180910390fd5b604051806040016040528086868080601f016020809104026020016040519081016040528093929190818152602001838380828437600081840152601f19601f820116905080830192505050505050508152602001848152506000808973ffffffffffffffffffffffffffffffffffffffff1673ffffffffffffffffffffffffffffffffffffffff16815260200190815260200160002060008881526020019081526020016000206000820151816000019080519060200190610d7a929190610f5c565b50602082015181600101559050507f9d6452ee68cbb3570d3a1d9e86c41ac426aafd3a08349ec57aac7666fa74e122866000808a73ffffffffffffffffffffffffffffffffffffffff1673ffffffffffffffffffffffffffffffffffffffff1681526020019081526020016000206000898152602001908152602001600020604051610e079291906117ff565b60405180910390a1856000808973ffffffffffffffffffffffffffffffffffffffff1673ffffffffffffffffffffffffffffffffffffffff168152602001908152602001600020600088815260200190815260200160002080604051806040016040529081600082018054600181600116156101000203166002900480601f016020809104026020016040519081016040528092919081815260200182805460018160011615610100020316600290048015610f045780601f10610ed957610100808354040283529160200191610f04565b820191906000526020600020905b815481529060010190602001808311610ee757829003601f168201915b505050505081526020016001820154815250509050915091509550959350505050565b6000600160009054906101000a900461ffff16905090565b604051806040016040528060608152602001600080191681525090565b828054600181600116156101000203166002900490600052602060002090601f016020900481019282601f10610f9d57805160ff1916838001178555610fcb565b82800160010185558215610fcb579182015b82811115610fca578251825591602001919060010190610faf565b5b509050610fd89190610fdc565b5090565b5b80821115610ff5576000816000905550600101610fdd565b5090565b60008135905061100881611960565b92915050565b60008135905061101d81611977565b92915050565b60008083601f84011261103557600080fd5b8235905067ffffffffffffffff81111561104e57600080fd5b60208301915083600182028301111561106657600080fd5b9250929050565b60008135905061107c8161198e565b92915050565b6000806040838503121561109557600080fd5b60006110a385828601610ff9565b92505060206110b48582860161106d565b9150509250929050565b6000806000806000608086880312156110d657600080fd5b60006110e488828901610ff9565b95505060206110f58882890161106d565b945050604086013567ffffffffffffffff81111561111257600080fd5b61111e88828901611023565b935093505060606111318882890161100e565b9150509295509295909350565b6000806020838503121561115157600080fd5b600083013567ffffffffffffffff81111561116b57600080fd5b61117785828601611023565b92509250509250929050565b6000806000806040858703121561119957600080fd5b600085013567ffffffffffffffff8111156111b357600080fd5b6111bf87828801611023565b9450945050602085013567ffffffffffffffff8111156111de57600080fd5b6111ea87828801611023565b925092505092959194509250565b60006020828403121561120a57600080fd5b60006112188482850161106d565b91505092915050565b6000806040838503121561123457600080fd5b60006112428582860161106d565b92505060206112538582860161100e565b9150509250929050565b60008060006040848603121561127257600080fd5b60006112808682870161106d565b935050602084013567ffffffffffffffff81111561129d57600080fd5b6112a986828701611023565b92509250509250925092565b600080600080606085870312156112cb57600080fd5b60006112d98782880161106d565b945050602085013567ffffffffffffffff8111156112f657600080fd5b61130287828801611023565b935093505060406113158782880161100e565b91505092959194509250565b61132a81611898565b82525050565b611339816118a4565b82525050565b611348816118a4565b82525050565b600061135a8385611871565b93506113678385846118e6565b82840190509392505050565b600061137e82611844565b611388818561184f565b93506113988185602086016118f5565b6113a181611942565b840191505092915050565b60006113b782611844565b6113c18185611860565b93506113d18185602086016118f5565b6113da81611942565b840191505092915050565b60008154600181166000811461140257600181146114285761146c565b607f6002830416611413818761184f565b955060ff19831686526020860193505061146c565b60028204611436818761184f565b95506114418561182f565b60005b8281101561146357815481890152600182019150602081019050611444565b80880195505050505b505092915050565b6000611481601583611860565b91507f4f6e6c79206f776e657220617574686f72697a656400000000000000000000006000830152602082019050919050565b60006114c1601383611860565b91507f486173682063616e6e6f74206265206e756c6c000000000000000000000000006000830152602082019050919050565b6000611501601683611860565b91507f4461746120616c7265616479206e6f746172697a6564000000000000000000006000830152602082019050919050565b6000611541601c83611860565b91507f54696d657374616d70206d757374206265206e6f726d616c697a6564000000006000830152602082019050919050565b6000611581601183611860565b91507f4e6f2064617461206e6f746172697a65640000000000000000000000000000006000830152602082019050919050565b600060408301600083015184820360008601526115d18282611373565b91505060208301516115e66020860182611330565b508091505092915050565b6000604083016000808401858303600087015261160e83826113e5565b9250506001840154905061162181611928565b61162e6020870182611330565b50819250505092915050565b611643816118ae565b82525050565b611652816118dc565b82525050565b600061166582848661134e565b91508190509392505050565b60006020820190506116866000830184611321565b92915050565b60006020820190506116a1600083018461133f565b92915050565b600060208201905081810360008301526116c081611474565b9050919050565b600060208201905081810360008301526116e0816114b4565b9050919050565b60006020820190508181036000830152611700816114f4565b9050919050565b6000602082019050818103600083015261172081611534565b9050919050565b6000602082019050818103600083015261174081611574565b9050919050565b6000602082019050818103600083015261176181846115b4565b905092915050565b600060208201905061177e600083018461163a565b92915050565b60006020820190506117996000830184611649565b92915050565b60006040820190506117b46000830185611649565b81810360208301526117c681846113ac565b90509392505050565b60006040820190506117e46000830185611649565b81810360208301526117f681846115b4565b90509392505050565b60006040820190506118146000830185611649565b818103602083015261182681846115f1565b90509392505050565b60008190508160005260206000209050919050565b600081519050919050565b600082825260208201905092915050565b600082825260208201905092915050565b600081905092915050565b6000819050919050565b6000611891826118bc565b9050919050565b60008115159050919050565b6000819050919050565b600061ffff82169050919050565b600073ffffffffffffffffffffffffffffffffffffffff82169050919050565b6000819050919050565b82818337600083830152505050565b60005b838110156119135780820151818401526020810190506118f8565b83811115611922576000848401525b50505050565b600061193b61193683611953565b61187c565b9050919050565b6000601f19601f8301169050919050565b60008160001c9050919050565b61196981611886565b811461197457600080fd5b50565b611980816118a4565b811461198b57600080fd5b50565b611997816118dc565b81146119a257600080fd5b5056fea2646970667358221220ec9fec8beead7c4e6c56bfcab197f2d0f49a281fb2773414a0c4deeece18673064736f6c63430007000033",
  "immutableReferences": {},
  "source": "// SPDX-License-Identifier: GPL-3.0\r\npragma solidity >=0.7.0 <0.9.0;\r\npragma experimental ABIEncoderV2;\r\n\r\n// On REMIX, use CRTL+SHIFT+S to run @custom:dev-run-script\r\n/**\r\n * @title Monitoring Data Notarization\r\n * @author Alessandro Rossi (ENG), 2023\r\n * @dev Notarization of monitoring data into the Blockchain through the hash of their dump at each timeslot.\r\n */\r\ncontract MonitoringDataNotarization {\r\n\r\n    struct Measurement {\r\n        string label; // unencrypted data attached to the dump (e.g., the query to retrieve it) \r\n        bytes32 hash; // encrypted dump of the monitoring data (saved in the off-chain storage)\r\n    }\r\n\r\n    mapping (address => mapping (uint => Measurement)) private measurements; // contract status\r\n    //i.e., (data provider, timestamp)->{label, hash}\r\n\r\n    uint16 private timeslot; // duration in seconds of each slot into which the dump is divided\r\n    address private owner; // the creator, administrator and maintainer of the present contract\r\n\r\n    event Notarized(uint timestamp, Measurement measurement);\r\n\r\n    constructor(uint16 timeslotInSeconds) {\r\n        owner = msg.sender;\r\n        timeslot = timeslotInSeconds; // e.g., 900 = 15 minutes\r\n    }\r\n\r\n    modifier onlyOwner() {\r\n        require(msg.sender == owner, \"Only owner authorized\");\r\n        _;\r\n    }\r\n\r\n     //=================//\r\n    // ADMIN FUNCTIONS //\r\n   //=================//\r\n\r\n    /// @dev Force the notarization of a monitoring data hash for a given data provider at a given unchecked timestamp\r\n    function addMeasurement(address provider, uint timestamp, string calldata label, bytes32 hash) \r\n            external onlyOwner returns (uint timestampInSeconds, Measurement memory measurement) {\r\n        measurements[provider][timestamp] = Measurement(label, hash);\r\n\r\n        emit Notarized(timestamp, measurements[provider][timestamp]);\r\n        return (timestamp, measurements[provider][timestamp]); // works only if called by a contract, use events externally\r\n    }\r\n\r\n    /// @dev Get the Measurement notarized for a given data provider at a given timestamp\r\n    function getMeasurement(address provider, uint timestamp)\r\n            external onlyOwner view returns (Measurement memory measurement) { \r\n        return measurements[provider][timestamp];\r\n    }\r\n\r\n     //==================//\r\n    // HELPER FUNCTIONS //\r\n   //==================//\r\n\r\n    /// @dev Calculate the monitoring data hash with Keccak 256 (SHA-3) algorithm\r\n    function encodeHash(string calldata data)\r\n            public pure returns (bytes32 measurementHash) {\r\n        return keccak256(abi.encodePacked(data));\r\n    }\r\n\r\n    /// @dev Get the metadata attached to the monitoring data notarized at a given timestamp\r\n    function getLabel(uint timestamp) \r\n            external view returns (uint normalizedTimestamp, string memory measurementLabel) {\r\n        timestamp = normalize(timestamp);\r\n        require(measurements[msg.sender][timestamp].hash != \"\", \"No data notarized\");\r\n\r\n        return (timestamp, measurements[msg.sender][timestamp].label);\r\n    }\r\n\r\n    /// @dev Get the established timeslot duration\r\n    function getTimeslotDuration() \r\n            external view returns (uint16 timeslotInSeconds) {\r\n        return timeslot;\r\n    }\r\n\r\n    /// @dev Get the current timestamp\r\n    function getTimestamp()\r\n            public view returns (uint timestampInSeconds) {\r\n        return block.timestamp;\r\n    }\r\n\r\n    /// @dev Set the timestamp to the preceding timeslot (e.g., 01:23:45 --> 01:15:00, if timeslot=15 min) \r\n    function normalize(uint timestamp)\r\n            public view returns (uint normalizedTimestamp) {\r\n        return timestamp / timeslot * timeslot;\r\n    }\r\n\r\n     //========================//\r\n    // NOTARIZATION FUNCTIONS //\r\n   //========================//\r\n\r\n    /// @dev Calculate and notarize the hash of monitoring data, normalizing the current timestamp\r\n    function certify(string calldata label, string calldata data) \r\n            external returns (uint timestampInSeconds, Measurement memory measurement) {\r\n        return notarize(normalize(getTimestamp()), label, encodeHash(data));\r\n    }\r\n\r\n    /// @dev Register a hash into the blockchain. at a given normalized unused timestamp\r\n    function notarize(uint timestamp, string calldata label, bytes32 hash) \r\n            public returns (uint timestampInSeconds, Measurement memory measurement) {\r\n        require(hash != \"\", \"Hash cannot be null\");\r\n        require(timestamp > 0 && timestamp % timeslot == 0, \"Timestamp must be normalized\");\r\n        require(measurements[msg.sender][timestamp].hash == \"\", \"Data already notarized\");\r\n\r\n        measurements[msg.sender][timestamp] = Measurement(label, hash);\r\n\r\n        emit Notarized(timestamp, measurements[msg.sender][timestamp]);\r\n        return (timestamp, measurements[msg.sender][timestamp]); // works only if called internally, use events externally\r\n    }\r\n\r\n     //========================//\r\n    // VERIFICATION FUNCTIONS //\r\n   //========================//\r\n\r\n    /// @dev Calculate and verify if a monitoring data hash has been notarized, normalizing the given timestamp\r\n    function check(uint timestamp, string calldata data)\r\n            external view returns (bool isNotarized) {\r\n        return verify(normalize(timestamp), encodeHash(data));\r\n    }\r\n\r\n    /// @dev Prove if a monitoring data hash has been notarized at a given used timestamp\r\n    function verify(uint timestamp, bytes32 hash)\r\n            public view returns (bool isNotarized) {\r\n        require(hash != \"\", \"Hash cannot be null\");\r\n        require(timestamp > 0 && timestamp % timeslot == 0, \"Timestamp must be normalized\");\r\n        require(measurements[msg.sender][timestamp].hash != \"\", \"No data notarized\");\r\n\r\n        return measurements[msg.sender][timestamp].hash == hash;\r\n    }\r\n}\r\n",
  "sourcePath": "C:\\projects\\BLOCKCHAIN\\web3-express-server-example\\contracts\\MonitoringDataNotarization.sol",
  "compiler": {
    "name": "solc",
    "version": "0.7.0+commit.9e61f92b.Emscripten.clang"
  },
  "schemaVersion": "3.4.14",
  "updatedAt": "2023-06-21T13:46:49.483Z",
  "networkType": "ethereum",
  "devdoc": {
    "author": "Alessandro Rossi (ENG), 2023",
    "details": "Notarization of monitoring data into the Blockchain through the hash of their dump at each timeslot.",
    "kind": "dev",
    "methods": {
      "addMeasurement(address,uint256,string,bytes32)": {
        "details": "Force the notarization of a monitoring data hash for a given data provider at a given unchecked timestamp"
      },
      "certify(string,string)": {
        "details": "Calculate and notarize the hash of monitoring data, normalizing the current timestamp"
      },
      "check(uint256,string)": {
        "details": "Calculate and verify if a monitoring data hash has been notarized, normalizing the given timestamp"
      },
      "encodeHash(string)": {
        "details": "Calculate the monitoring data hash with Keccak 256 (SHA-3) algorithm"
      },
      "getLabel(uint256)": {
        "details": "Get the metadata attached to the monitoring data notarized at a given timestamp"
      },
      "getMeasurement(address,uint256)": {
        "details": "Get the Measurement notarized for a given data provider at a given timestamp"
      },
      "getTimeslotDuration()": {
        "details": "Get the established timeslot duration"
      },
      "getTimestamp()": {
        "details": "Get the current timestamp"
      },
      "normalize(uint256)": {
        "details": "Set the timestamp to the preceding timeslot (e.g., 01:23:45 --> 01:15:00, if timeslot=15 min) "
      },
      "notarize(uint256,string,bytes32)": {
        "details": "Register a hash into the blockchain. at a given normalized unused timestamp"
      },
      "verify(uint256,bytes32)": {
        "details": "Prove if a monitoring data hash has been notarized at a given used timestamp"
      }
    },
    "title": "Monitoring Data Notarization",
    "version": 1
  },
  "userdoc": {
    "kind": "user",
    "methods": {},
    "version": 1
  }
}